{
  "_format": "hh-sol-artifact-1",
  "contractName": "WOAWOA",
  "sourceName": "contracts/WOAWOA.sol",
  "abi": [
    {
      "inputs": [],
      "stateMutability": "nonpayable",
      "type": "constructor"
    },
    {
      "inputs": [],
      "name": "ApprovalCallerNotOwnerNorApproved",
      "type": "error"
    },
    {
      "inputs": [],
      "name": "ApprovalQueryForNonexistentToken",
      "type": "error"
    },
    {
      "inputs": [],
      "name": "ApproveToCaller",
      "type": "error"
    },
    {
      "inputs": [],
      "name": "BalanceQueryForZeroAddress",
      "type": "error"
    },
    {
      "inputs": [],
      "name": "MintERC2309QuantityExceedsLimit",
      "type": "error"
    },
    {
      "inputs": [],
      "name": "MintToZeroAddress",
      "type": "error"
    },
    {
      "inputs": [],
      "name": "MintZeroQuantity",
      "type": "error"
    },
    {
      "inputs": [],
      "name": "OwnerQueryForNonexistentToken",
      "type": "error"
    },
    {
      "inputs": [],
      "name": "OwnershipNotInitializedForExtraData",
      "type": "error"
    },
    {
      "inputs": [],
      "name": "TransferCallerNotOwnerNorApproved",
      "type": "error"
    },
    {
      "inputs": [],
      "name": "TransferFromIncorrectOwner",
      "type": "error"
    },
    {
      "inputs": [],
      "name": "TransferToNonERC721ReceiverImplementer",
      "type": "error"
    },
    {
      "inputs": [],
      "name": "TransferToZeroAddress",
      "type": "error"
    },
    {
      "inputs": [],
      "name": "URIQueryForNonexistentToken",
      "type": "error"
    },
    {
      "anonymous": false,
      "inputs": [
        {
          "indexed": true,
          "internalType": "address",
          "name": "owner",
          "type": "address"
        },
        {
          "indexed": true,
          "internalType": "address",
          "name": "approved",
          "type": "address"
        },
        {
          "indexed": true,
          "internalType": "uint256",
          "name": "tokenId",
          "type": "uint256"
        }
      ],
      "name": "Approval",
      "type": "event"
    },
    {
      "anonymous": false,
      "inputs": [
        {
          "indexed": true,
          "internalType": "address",
          "name": "owner",
          "type": "address"
        },
        {
          "indexed": true,
          "internalType": "address",
          "name": "operator",
          "type": "address"
        },
        {
          "indexed": false,
          "internalType": "bool",
          "name": "approved",
          "type": "bool"
        }
      ],
      "name": "ApprovalForAll",
      "type": "event"
    },
    {
      "anonymous": false,
      "inputs": [
        {
          "indexed": true,
          "internalType": "uint256",
          "name": "fromTokenId",
          "type": "uint256"
        },
        {
          "indexed": false,
          "internalType": "uint256",
          "name": "toTokenId",
          "type": "uint256"
        },
        {
          "indexed": true,
          "internalType": "address",
          "name": "from",
          "type": "address"
        },
        {
          "indexed": true,
          "internalType": "address",
          "name": "to",
          "type": "address"
        }
      ],
      "name": "ConsecutiveTransfer",
      "type": "event"
    },
    {
      "anonymous": false,
      "inputs": [
        {
          "indexed": true,
          "internalType": "address",
          "name": "previousOwner",
          "type": "address"
        },
        {
          "indexed": true,
          "internalType": "address",
          "name": "newOwner",
          "type": "address"
        }
      ],
      "name": "OwnershipTransferred",
      "type": "event"
    },
    {
      "anonymous": false,
      "inputs": [
        {
          "indexed": true,
          "internalType": "address",
          "name": "from",
          "type": "address"
        },
        {
          "indexed": true,
          "internalType": "address",
          "name": "to",
          "type": "address"
        },
        {
          "indexed": true,
          "internalType": "uint256",
          "name": "tokenId",
          "type": "uint256"
        }
      ],
      "name": "Transfer",
      "type": "event"
    },
    {
      "inputs": [],
      "name": "MAX_PER_TXN",
      "outputs": [
        {
          "internalType": "uint256",
          "name": "",
          "type": "uint256"
        }
      ],
      "stateMutability": "view",
      "type": "function"
    },
    {
      "inputs": [],
      "name": "MAX_SUPPLY",
      "outputs": [
        {
          "internalType": "uint256",
          "name": "",
          "type": "uint256"
        }
      ],
      "stateMutability": "view",
      "type": "function"
    },
    {
      "inputs": [
        {
          "internalType": "uint256",
          "name": "quantity",
          "type": "uint256"
        },
        {
          "internalType": "address",
          "name": "reciever",
          "type": "address"
        }
      ],
      "name": "airdrop",
      "outputs": [],
      "stateMutability": "payable",
      "type": "function"
    },
    {
      "inputs": [
        {
          "internalType": "address",
          "name": "to",
          "type": "address"
        },
        {
          "internalType": "uint256",
          "name": "tokenId",
          "type": "uint256"
        }
      ],
      "name": "approve",
      "outputs": [],
      "stateMutability": "nonpayable",
      "type": "function"
    },
    {
      "inputs": [
        {
          "internalType": "address",
          "name": "owner",
          "type": "address"
        }
      ],
      "name": "balanceOf",
      "outputs": [
        {
          "internalType": "uint256",
          "name": "",
          "type": "uint256"
        }
      ],
      "stateMutability": "view",
      "type": "function"
    },
    {
      "inputs": [],
      "name": "baseURI",
      "outputs": [
        {
          "internalType": "string",
          "name": "",
          "type": "string"
        }
      ],
      "stateMutability": "view",
      "type": "function"
    },
    {
      "inputs": [
        {
          "internalType": "uint256",
          "name": "tokenId",
          "type": "uint256"
        }
      ],
      "name": "getApproved",
      "outputs": [
        {
          "internalType": "address",
          "name": "",
          "type": "address"
        }
      ],
      "stateMutability": "view",
      "type": "function"
    },
    {
      "inputs": [
        {
          "internalType": "address",
          "name": "owner",
          "type": "address"
        },
        {
          "internalType": "address",
          "name": "operator",
          "type": "address"
        }
      ],
      "name": "isApprovedForAll",
      "outputs": [
        {
          "internalType": "bool",
          "name": "",
          "type": "bool"
        }
      ],
      "stateMutability": "view",
      "type": "function"
    },
    {
      "inputs": [
        {
          "internalType": "uint256",
          "name": "quantity",
          "type": "uint256"
        }
      ],
      "name": "mint",
      "outputs": [],
      "stateMutability": "payable",
      "type": "function"
    },
    {
      "inputs": [
        {
          "internalType": "address",
          "name": "",
          "type": "address"
        }
      ],
      "name": "mintsPerAddress",
      "outputs": [
        {
          "internalType": "uint256",
          "name": "",
          "type": "uint256"
        }
      ],
      "stateMutability": "view",
      "type": "function"
    },
    {
      "inputs": [],
      "name": "name",
      "outputs": [
        {
          "internalType": "string",
          "name": "",
          "type": "string"
        }
      ],
      "stateMutability": "view",
      "type": "function"
    },
    {
      "inputs": [],
      "name": "owner",
      "outputs": [
        {
          "internalType": "address",
          "name": "",
          "type": "address"
        }
      ],
      "stateMutability": "view",
      "type": "function"
    },
    {
      "inputs": [
        {
          "internalType": "uint256",
          "name": "tokenId",
          "type": "uint256"
        }
      ],
      "name": "ownerOf",
      "outputs": [
        {
          "internalType": "address",
          "name": "",
          "type": "address"
        }
      ],
      "stateMutability": "view",
      "type": "function"
    },
    {
      "inputs": [],
      "name": "paused",
      "outputs": [
        {
          "internalType": "bool",
          "name": "",
          "type": "bool"
        }
      ],
      "stateMutability": "view",
      "type": "function"
    },
    {
      "inputs": [],
      "name": "price",
      "outputs": [
        {
          "internalType": "uint256",
          "name": "",
          "type": "uint256"
        }
      ],
      "stateMutability": "view",
      "type": "function"
    },
    {
      "inputs": [],
      "name": "renounceOwnership",
      "outputs": [],
      "stateMutability": "nonpayable",
      "type": "function"
    },
    {
      "inputs": [
        {
          "internalType": "address",
          "name": "from",
          "type": "address"
        },
        {
          "internalType": "address",
          "name": "to",
          "type": "address"
        },
        {
          "internalType": "uint256",
          "name": "tokenId",
          "type": "uint256"
        }
      ],
      "name": "safeTransferFrom",
      "outputs": [],
      "stateMutability": "nonpayable",
      "type": "function"
    },
    {
      "inputs": [
        {
          "internalType": "address",
          "name": "from",
          "type": "address"
        },
        {
          "internalType": "address",
          "name": "to",
          "type": "address"
        },
        {
          "internalType": "uint256",
          "name": "tokenId",
          "type": "uint256"
        },
        {
          "internalType": "bytes",
          "name": "_data",
          "type": "bytes"
        }
      ],
      "name": "safeTransferFrom",
      "outputs": [],
      "stateMutability": "nonpayable",
      "type": "function"
    },
    {
      "inputs": [
        {
          "internalType": "address",
          "name": "operator",
          "type": "address"
        },
        {
          "internalType": "bool",
          "name": "approved",
          "type": "bool"
        }
      ],
      "name": "setApprovalForAll",
      "outputs": [],
      "stateMutability": "nonpayable",
      "type": "function"
    },
    {
      "inputs": [
        {
          "internalType": "string",
          "name": "_baseUri",
          "type": "string"
        }
      ],
      "name": "setBaseURI",
      "outputs": [],
      "stateMutability": "nonpayable",
      "type": "function"
    },
    {
      "inputs": [
        {
          "internalType": "bool",
          "name": "_state",
          "type": "bool"
        }
      ],
      "name": "setPaused",
      "outputs": [],
      "stateMutability": "nonpayable",
      "type": "function"
    },
    {
      "inputs": [
        {
          "internalType": "bytes4",
          "name": "interfaceId",
          "type": "bytes4"
        }
      ],
      "name": "supportsInterface",
      "outputs": [
        {
          "internalType": "bool",
          "name": "",
          "type": "bool"
        }
      ],
      "stateMutability": "view",
      "type": "function"
    },
    {
      "inputs": [],
      "name": "symbol",
      "outputs": [
        {
          "internalType": "string",
          "name": "",
          "type": "string"
        }
      ],
      "stateMutability": "view",
      "type": "function"
    },
    {
      "inputs": [
        {
          "internalType": "uint256",
          "name": "_tokenId",
          "type": "uint256"
        }
      ],
      "name": "tokenURI",
      "outputs": [
        {
          "internalType": "string",
          "name": "",
          "type": "string"
        }
      ],
      "stateMutability": "view",
      "type": "function"
    },
    {
      "inputs": [],
      "name": "totalSupply",
      "outputs": [
        {
          "internalType": "uint256",
          "name": "",
          "type": "uint256"
        }
      ],
      "stateMutability": "view",
      "type": "function"
    },
    {
      "inputs": [
        {
          "internalType": "address",
          "name": "from",
          "type": "address"
        },
        {
          "internalType": "address",
          "name": "to",
          "type": "address"
        },
        {
          "internalType": "uint256",
          "name": "tokenId",
          "type": "uint256"
        }
      ],
      "name": "transferFrom",
      "outputs": [],
      "stateMutability": "nonpayable",
      "type": "function"
    },
    {
      "inputs": [
        {
          "internalType": "address",
          "name": "newOwner",
          "type": "address"
        }
      ],
      "name": "transferOwnership",
      "outputs": [],
      "stateMutability": "nonpayable",
      "type": "function"
    },
    {
      "inputs": [],
      "name": "withdraw",
      "outputs": [],
      "stateMutability": "payable",
      "type": "function"
    }
  ],
  "bytecode": "0x608060405266038d7ea4c680006009556000600b60006101000a81548160ff0219169083151502179055503480156200003757600080fd5b506040518060400160405280600681526020017f574f41574f4100000000000000000000000000000000000000000000000000008152506040518060400160405280600381526020017f776f610000000000000000000000000000000000000000000000000000000000815250620000c4620000b8620001c760201b60201c565b620001cf60201b60201c565b8160039080519060200190620000dc92919062000869565b508060049080519060200190620000f592919062000869565b50620001066200029360201b60201c565b6001819055505050620001b1600a8054620001219062000948565b80601f01602080910402602001604051908101604052809291908181526020018280546200014f9062000948565b8015620001a05780601f106200017457610100808354040283529160200191620001a0565b820191906000526020600020905b8154815290600101906020018083116200018257829003601f168201915b50505050506200029c60201b60201c565b620001c1620002c860201b60201c565b62000bed565b600033905090565b60008060009054906101000a900473ffffffffffffffffffffffffffffffffffffffff169050816000806101000a81548173ffffffffffffffffffffffffffffffffffffffff021916908373ffffffffffffffffffffffffffffffffffffffff1602179055508173ffffffffffffffffffffffffffffffffffffffff168173ffffffffffffffffffffffffffffffffffffffff167f8be0079c531659141344cd1fd0a4f28419497f9722a3daafe3b4186f6b6457e060405160405180910390a35050565b60006001905090565b620002ac620002f360201b60201c565b80600a9080519060200190620002c492919062000869565b5050565b620002d8620002f360201b60201c565b600060019050620002f033826200038460201b60201c565b50565b62000303620001c760201b60201c565b73ffffffffffffffffffffffffffffffffffffffff1662000329620003aa60201b60201c565b73ffffffffffffffffffffffffffffffffffffffff161462000382576040517f08c379a00000000000000000000000000000000000000000000000000000000081526004016200037990620009df565b60405180910390fd5b565b620003a6828260405180602001604052806000815250620003d360201b60201c565b5050565b60008060009054906101000a900473ffffffffffffffffffffffffffffffffffffffff16905090565b620003e583836200048560201b60201c565b60008373ffffffffffffffffffffffffffffffffffffffff163b14620004805760006001549050600083820390505b6200042f60008683806001019450866200066f60201b60201c565b62000466576040517fd1a57ed600000000000000000000000000000000000000000000000000000000815260040160405180910390fd5b818110620004145781600154146200047d57600080fd5b50505b505050565b600060015490506000821415620004c8576040517fb562e8dd00000000000000000000000000000000000000000000000000000000815260040160405180910390fd5b620004dd6000848385620007e160201b60201c565b600160406001901b178202600660008573ffffffffffffffffffffffffffffffffffffffff1673ffffffffffffffffffffffffffffffffffffffff168152602001908152602001600020600082825401925050819055506200056c836200054e6000866000620007e760201b60201c565b6200055f856200081760201b60201c565b176200082760201b60201c565b6005600083815260200190815260200160002081905550600080838301905073ffffffffffffffffffffffffffffffffffffffff85169150828260007fddf252ad1be2c89b69c2b068fc378daa952ba7f163c4a11628f55a4df523b3ef600080a4600183015b8181146200060f57808360007fddf252ad1be2c89b69c2b068fc378daa952ba7f163c4a11628f55a4df523b3ef600080a4600181019050620005d2565b5060008214156200064c576040517f2e07630000000000000000000000000000000000000000000000000000000000815260040160405180910390fd5b8060018190555050506200066a60008483856200085260201b60201c565b505050565b60008373ffffffffffffffffffffffffffffffffffffffff1663150b7a026200069d6200085860201b60201c565b8786866040518563ffffffff1660e01b8152600401620006c1949392919062000b05565b602060405180830381600087803b158015620006dc57600080fd5b505af19250505080156200071057506040513d601f19601f820116820180604052508101906200070d919062000bbb565b60015b6200078e573d806000811462000743576040519150601f19603f3d011682016040523d82523d6000602084013e62000748565b606091505b5060008151141562000786576040517fd1a57ed600000000000000000000000000000000000000000000000000000000815260040160405180910390fd5b805181602001fd5b63150b7a0260e01b7bffffffffffffffffffffffffffffffffffffffffffffffffffffffff1916817bffffffffffffffffffffffffffffffffffffffffffffffffffffffff191614915050949350505050565b50505050565b60008060e883901c905060e8620008068686846200086060201b60201c565b62ffffff16901b9150509392505050565b60006001821460e11b9050919050565b600073ffffffffffffffffffffffffffffffffffffffff83169250814260a01b178317905092915050565b50505050565b600033905090565b60009392505050565b828054620008779062000948565b90600052602060002090601f0160209004810192826200089b5760008555620008e7565b82601f10620008b657805160ff1916838001178555620008e7565b82800160010185558215620008e7579182015b82811115620008e6578251825591602001919060010190620008c9565b5b509050620008f69190620008fa565b5090565b5b8082111562000915576000816000905550600101620008fb565b5090565b7f4e487b7100000000000000000000000000000000000000000000000000000000600052602260045260246000fd5b600060028204905060018216806200096157607f821691505b6020821081141562000978576200097762000919565b5b50919050565b600082825260208201905092915050565b7f4f776e61626c653a2063616c6c6572206973206e6f7420746865206f776e6572600082015250565b6000620009c76020836200097e565b9150620009d4826200098f565b602082019050919050565b60006020820190508181036000830152620009fa81620009b8565b9050919050565b600073ffffffffffffffffffffffffffffffffffffffff82169050919050565b600062000a2e8262000a01565b9050919050565b62000a408162000a21565b82525050565b6000819050919050565b62000a5b8162000a46565b82525050565b600081519050919050565b600082825260208201905092915050565b60005b8381101562000a9d57808201518184015260208101905062000a80565b8381111562000aad576000848401525b50505050565b6000601f19601f8301169050919050565b600062000ad18262000a61565b62000add818562000a6c565b935062000aef81856020860162000a7d565b62000afa8162000ab3565b840191505092915050565b600060808201905062000b1c600083018762000a35565b62000b2b602083018662000a35565b62000b3a604083018562000a50565b818103606083015262000b4e818462000ac4565b905095945050505050565b600080fd5b60007fffffffff0000000000000000000000000000000000000000000000000000000082169050919050565b62000b958162000b5e565b811462000ba157600080fd5b50565b60008151905062000bb58162000b8a565b92915050565b60006020828403121562000bd45762000bd362000b59565b5b600062000be48482850162000ba4565b91505092915050565b612eb38062000bfd6000396000f3fe6080604052600436106101b75760003560e01c80636352211e116100ec578063a0712d681161008a578063bc63f02e11610064578063bc63f02e146105cc578063c87b56dd146105e8578063e985e9c514610625578063f2fde38b14610662576101b7565b8063a0712d681461055e578063a22cb4651461057a578063b88d4fde146105a3576101b7565b8063715018a6116100c6578063715018a6146104c65780638da5cb5b146104dd57806395d89b4114610508578063a035b1fe14610533576101b7565b80636352211e146104215780636c0360eb1461045e57806370a0823114610489576101b7565b80633023eba61161015957806342842e0e1161013357806342842e0e1461037957806351b96d92146103a257806355f804b3146103cd5780635c975abb146103f6576101b7565b80633023eba61461030757806332cb6b0c146103445780633ccfd60b1461036f576101b7565b8063095ea7b311610195578063095ea7b31461026157806316c38b3c1461028a57806318160ddd146102b357806323b872dd146102de576101b7565b806301ffc9a7146101bc57806306fdde03146101f9578063081812fc14610224575b600080fd5b3480156101c857600080fd5b506101e360048036038101906101de9190611f32565b61068b565b6040516101f09190611f7a565b60405180910390f35b34801561020557600080fd5b5061020e61071d565b60405161021b919061202e565b60405180910390f35b34801561023057600080fd5b5061024b60048036038101906102469190612086565b6107af565b60405161025891906120f4565b60405180910390f35b34801561026d57600080fd5b506102886004803603810190610283919061213b565b61082e565b005b34801561029657600080fd5b506102b160048036038101906102ac91906121a7565b610972565b005b3480156102bf57600080fd5b506102c8610997565b6040516102d591906121e3565b60405180910390f35b3480156102ea57600080fd5b50610305600480360381019061030091906121fe565b6109ae565b005b34801561031357600080fd5b5061032e60048036038101906103299190612251565b610cd3565b60405161033b91906121e3565b60405180910390f35b34801561035057600080fd5b50610359610ceb565b60405161036691906121e3565b60405180910390f35b610377610cf1565b005b34801561038557600080fd5b506103a0600480360381019061039b91906121fe565b610da8565b005b3480156103ae57600080fd5b506103b7610dc8565b6040516103c491906121e3565b60405180910390f35b3480156103d957600080fd5b506103f460048036038101906103ef91906123b3565b610dcd565b005b34801561040257600080fd5b5061040b610def565b6040516104189190611f7a565b60405180910390f35b34801561042d57600080fd5b5061044860048036038101906104439190612086565b610e02565b60405161045591906120f4565b60405180910390f35b34801561046a57600080fd5b50610473610e14565b604051610480919061202e565b60405180910390f35b34801561049557600080fd5b506104b060048036038101906104ab9190612251565b610ea2565b6040516104bd91906121e3565b60405180910390f35b3480156104d257600080fd5b506104db610f5b565b005b3480156104e957600080fd5b506104f2610f6f565b6040516104ff91906120f4565b60405180910390f35b34801561051457600080fd5b5061051d610f98565b60405161052a919061202e565b60405180910390f35b34801561053f57600080fd5b5061054861102a565b60405161055591906121e3565b60405180910390f35b61057860048036038101906105739190612086565b611030565b005b34801561058657600080fd5b506105a1600480360381019061059c91906123fc565b611230565b005b3480156105af57600080fd5b506105ca60048036038101906105c591906124dd565b6113a8565b005b6105e660048036038101906105e19190612560565b61141b565b005b3480156105f457600080fd5b5061060f600480360381019061060a9190612086565b611431565b60405161061c919061202e565b60405180910390f35b34801561063157600080fd5b5061064c600480360381019061064791906125a0565b611465565b6040516106599190611f7a565b60405180910390f35b34801561066e57600080fd5b5061068960048036038101906106849190612251565b6114f9565b005b60006301ffc9a760e01b827bffffffffffffffffffffffffffffffffffffffffffffffffffffffff191614806106e657506380ac58cd60e01b827bffffffffffffffffffffffffffffffffffffffffffffffffffffffff1916145b806107165750635b5e139f60e01b827bffffffffffffffffffffffffffffffffffffffffffffffffffffffff1916145b9050919050565b60606003805461072c9061260f565b80601f01602080910402602001604051908101604052809291908181526020018280546107589061260f565b80156107a55780601f1061077a576101008083540402835291602001916107a5565b820191906000526020600020905b81548152906001019060200180831161078857829003601f168201915b5050505050905090565b60006107ba8261157d565b6107f0576040517fcf4700e400000000000000000000000000000000000000000000000000000000815260040160405180910390fd5b6007600083815260200190815260200160002060000160009054906101000a900473ffffffffffffffffffffffffffffffffffffffff169050919050565b600061083982610e02565b90508073ffffffffffffffffffffffffffffffffffffffff1661085a6115dc565b73ffffffffffffffffffffffffffffffffffffffff16146108bd57610886816108816115dc565b611465565b6108bc576040517fcfb3b94200000000000000000000000000000000000000000000000000000000815260040160405180910390fd5b5b826007600084815260200190815260200160002060000160006101000a81548173ffffffffffffffffffffffffffffffffffffffff021916908373ffffffffffffffffffffffffffffffffffffffff160217905550818373ffffffffffffffffffffffffffffffffffffffff168273ffffffffffffffffffffffffffffffffffffffff167f8c5be1e5ebec7d5bd14f71427d1e84f3dd0314c0f7b2291e5b200ac8c7c3b92560405160405180910390a4505050565b61097a6115e4565b80600b60006101000a81548160ff02191690831515021790555050565b60006109a1611662565b6002546001540303905090565b60006109b98261166b565b90508373ffffffffffffffffffffffffffffffffffffffff168173ffffffffffffffffffffffffffffffffffffffff1614610a20576040517fa114810000000000000000000000000000000000000000000000000000000000815260040160405180910390fd5b600080610a2c84611739565b91509150610a428187610a3d6115dc565b611760565b610a8e57610a5786610a526115dc565b611465565b610a8d576040517f59c896be00000000000000000000000000000000000000000000000000000000815260040160405180910390fd5b5b600073ffffffffffffffffffffffffffffffffffffffff168573ffffffffffffffffffffffffffffffffffffffff161415610af5576040517fea553b3400000000000000000000000000000000000000000000000000000000815260040160405180910390fd5b610b0286868660016117a4565b8015610b0d57600082555b600660008773ffffffffffffffffffffffffffffffffffffffff1673ffffffffffffffffffffffffffffffffffffffff168152602001908152602001600020600081546001900391905081905550600660008673ffffffffffffffffffffffffffffffffffffffff1673ffffffffffffffffffffffffffffffffffffffff1681526020019081526020016000206000815460010191905081905550610bdb85610bb78888876117aa565b7c0200000000000000000000000000000000000000000000000000000000176117d2565b600560008681526020019081526020016000208190555060007c020000000000000000000000000000000000000000000000000000000084161415610c63576000600185019050600060056000838152602001908152602001600020541415610c61576001548114610c60578360056000838152602001908152602001600020819055505b5b505b838573ffffffffffffffffffffffffffffffffffffffff168773ffffffffffffffffffffffffffffffffffffffff167fddf252ad1be2c89b69c2b068fc378daa952ba7f163c4a11628f55a4df523b3ef60405160405180910390a4610ccb86868660016117fd565b505050505050565b600c6020528060005260406000206000915090505481565b610d0581565b610cf96115e4565b60003373ffffffffffffffffffffffffffffffffffffffff1647604051610d1f90612672565b60006040518083038185875af1925050503d8060008114610d5c576040519150601f19603f3d011682016040523d82523d6000602084013e610d61565b606091505b5050905080610da5576040517f08c379a0000000000000000000000000000000000000000000000000000000008152600401610d9c906126d3565b60405180910390fd5b50565b610dc3838383604051806020016040528060008152506113a8565b505050565b601481565b610dd56115e4565b80600a9080519060200190610deb929190611e23565b5050565b600b60009054906101000a900460ff1681565b6000610e0d8261166b565b9050919050565b600a8054610e219061260f565b80601f0160208091040260200160405190810160405280929190818152602001828054610e4d9061260f565b8015610e9a5780601f10610e6f57610100808354040283529160200191610e9a565b820191906000526020600020905b815481529060010190602001808311610e7d57829003601f168201915b505050505081565b60008073ffffffffffffffffffffffffffffffffffffffff168273ffffffffffffffffffffffffffffffffffffffff161415610f0a576040517f8f4eb60400000000000000000000000000000000000000000000000000000000815260040160405180910390fd5b67ffffffffffffffff600660008473ffffffffffffffffffffffffffffffffffffffff1673ffffffffffffffffffffffffffffffffffffffff16815260200190815260200160002054169050919050565b610f636115e4565b610f6d6000611803565b565b60008060009054906101000a900473ffffffffffffffffffffffffffffffffffffffff16905090565b606060048054610fa79061260f565b80601f0160208091040260200160405190810160405280929190818152602001828054610fd39061260f565b80156110205780601f10610ff557610100808354040283529160200191611020565b820191906000526020600020905b81548152906001019060200180831161100357829003601f168201915b5050505050905090565b60095481565b600b60009054906101000a900460ff1615611080576040517f08c379a00000000000000000000000000000000000000000000000000000000081526004016110779061273f565b60405180910390fd5b610d058161108c610997565b611096919061278e565b11156110d7576040517f08c379a00000000000000000000000000000000000000000000000000000000081526004016110ce90612830565b60405180910390fd5b601481111561111b576040517f08c379a00000000000000000000000000000000000000000000000000000000081526004016111129061289c565b60405180910390fd5b600181116111675760003414611166576040517f08c379a000000000000000000000000000000000000000000000000000000000815260040161115d90612908565b60405180910390fd5b5b60018111156111cd576009546001826111809190612928565b61118a919061295c565b3410156111cc576040517f08c379a00000000000000000000000000000000000000000000000000000000081526004016111c390612a28565b60405180910390fd5b5b80600c60003373ffffffffffffffffffffffffffffffffffffffff1673ffffffffffffffffffffffffffffffffffffffff168152602001908152602001600020600082825461121c919061278e565b9250508190555061122d33826118c7565b50565b6112386115dc565b73ffffffffffffffffffffffffffffffffffffffff168273ffffffffffffffffffffffffffffffffffffffff16141561129d576040517fb06307db00000000000000000000000000000000000000000000000000000000815260040160405180910390fd5b80600860006112aa6115dc565b73ffffffffffffffffffffffffffffffffffffffff1673ffffffffffffffffffffffffffffffffffffffff16815260200190815260200160002060008473ffffffffffffffffffffffffffffffffffffffff1673ffffffffffffffffffffffffffffffffffffffff16815260200190815260200160002060006101000a81548160ff0219169083151502179055508173ffffffffffffffffffffffffffffffffffffffff166113576115dc565b73ffffffffffffffffffffffffffffffffffffffff167f17307eab39ab6107e8899845ad3d59bd9653f200f220920489ca2b5937696c318360405161139c9190611f7a565b60405180910390a35050565b6113b38484846109ae565b60008373ffffffffffffffffffffffffffffffffffffffff163b14611415576113de848484846118e5565b611414576040517fd1a57ed600000000000000000000000000000000000000000000000000000000815260040160405180910390fd5b5b50505050565b6114236115e4565b61142d81836118c7565b5050565b6060600a61143e83611a45565b60405160200161144f929190612b64565b6040516020818303038152906040529050919050565b6000600860008473ffffffffffffffffffffffffffffffffffffffff1673ffffffffffffffffffffffffffffffffffffffff16815260200190815260200160002060008373ffffffffffffffffffffffffffffffffffffffff1673ffffffffffffffffffffffffffffffffffffffff16815260200190815260200160002060009054906101000a900460ff16905092915050565b6115016115e4565b600073ffffffffffffffffffffffffffffffffffffffff168173ffffffffffffffffffffffffffffffffffffffff161415611571576040517f08c379a000000000000000000000000000000000000000000000000000000000815260040161156890612c05565b60405180910390fd5b61157a81611803565b50565b600081611588611662565b11158015611597575060015482105b80156115d5575060007c0100000000000000000000000000000000000000000000000000000000600560008581526020019081526020016000205416145b9050919050565b600033905090565b6115ec611ba6565b73ffffffffffffffffffffffffffffffffffffffff1661160a610f6f565b73ffffffffffffffffffffffffffffffffffffffff1614611660576040517f08c379a000000000000000000000000000000000000000000000000000000000815260040161165790612c71565b60405180910390fd5b565b60006001905090565b6000808290508061167a611662565b11611702576001548110156117015760006005600083815260200190815260200160002054905060007c0100000000000000000000000000000000000000000000000000000000821614156116ff575b60008114156116f55760056000836001900393508381526020019081526020016000205490506116ca565b8092505050611734565b505b5b6040517fdf2d9b4200000000000000000000000000000000000000000000000000000000815260040160405180910390fd5b919050565b60008060006007600085815260200190815260200160002090508092508254915050915091565b600073ffffffffffffffffffffffffffffffffffffffff8316925073ffffffffffffffffffffffffffffffffffffffff821691508382148383141790509392505050565b50505050565b60008060e883901c905060e86117c1868684611bae565b62ffffff16901b9150509392505050565b600073ffffffffffffffffffffffffffffffffffffffff83169250814260a01b178317905092915050565b50505050565b60008060009054906101000a900473ffffffffffffffffffffffffffffffffffffffff169050816000806101000a81548173ffffffffffffffffffffffffffffffffffffffff021916908373ffffffffffffffffffffffffffffffffffffffff1602179055508173ffffffffffffffffffffffffffffffffffffffff168173ffffffffffffffffffffffffffffffffffffffff167f8be0079c531659141344cd1fd0a4f28419497f9722a3daafe3b4186f6b6457e060405160405180910390a35050565b6118e1828260405180602001604052806000815250611bb7565b5050565b60008373ffffffffffffffffffffffffffffffffffffffff1663150b7a0261190b6115dc565b8786866040518563ffffffff1660e01b815260040161192d9493929190612ce6565b602060405180830381600087803b15801561194757600080fd5b505af192505050801561197857506040513d601f19601f820116820180604052508101906119759190612d47565b60015b6119f2573d80600081146119a8576040519150601f19603f3d011682016040523d82523d6000602084013e6119ad565b606091505b506000815114156119ea576040517fd1a57ed600000000000000000000000000000000000000000000000000000000815260040160405180910390fd5b805181602001fd5b63150b7a0260e01b7bffffffffffffffffffffffffffffffffffffffffffffffffffffffff1916817bffffffffffffffffffffffffffffffffffffffffffffffffffffffff191614915050949350505050565b60606000821415611a8d576040518060400160405280600181526020017f30000000000000000000000000000000000000000000000000000000000000008152509050611ba1565b600082905060005b60008214611abf578080611aa890612d74565b915050600a82611ab89190612dec565b9150611a95565b60008167ffffffffffffffff811115611adb57611ada612288565b5b6040519080825280601f01601f191660200182016040528015611b0d5781602001600182028036833780820191505090505b5090505b60008514611b9a57600182611b269190612928565b9150600a85611b359190612e1d565b6030611b41919061278e565b60f81b818381518110611b5757611b56612e4e565b5b60200101907effffffffffffffffffffffffffffffffffffffffffffffffffffffffffffff1916908160001a905350600a85611b939190612dec565b9450611b11565b8093505050505b919050565b600033905090565b60009392505050565b611bc18383611c55565b60008373ffffffffffffffffffffffffffffffffffffffff163b14611c505760006001549050600083820390505b611c0260008683806001019450866118e5565b611c38576040517fd1a57ed600000000000000000000000000000000000000000000000000000000815260040160405180910390fd5b818110611bef578160015414611c4d57600080fd5b50505b505050565b600060015490506000821415611c97576040517fb562e8dd00000000000000000000000000000000000000000000000000000000815260040160405180910390fd5b611ca460008483856117a4565b600160406001901b178202600660008573ffffffffffffffffffffffffffffffffffffffff1673ffffffffffffffffffffffffffffffffffffffff16815260200190815260200160002060008282540192505081905550611d1b83611d0c60008660006117aa565b611d1585611e13565b176117d2565b6005600083815260200190815260200160002081905550600080838301905073ffffffffffffffffffffffffffffffffffffffff85169150828260007fddf252ad1be2c89b69c2b068fc378daa952ba7f163c4a11628f55a4df523b3ef600080a4600183015b818114611dbc57808360007fddf252ad1be2c89b69c2b068fc378daa952ba7f163c4a11628f55a4df523b3ef600080a4600181019050611d81565b506000821415611df8576040517f2e07630000000000000000000000000000000000000000000000000000000000815260040160405180910390fd5b806001819055505050611e0e60008483856117fd565b505050565b60006001821460e11b9050919050565b828054611e2f9061260f565b90600052602060002090601f016020900481019282611e515760008555611e98565b82601f10611e6a57805160ff1916838001178555611e98565b82800160010185558215611e98579182015b82811115611e97578251825591602001919060010190611e7c565b5b509050611ea59190611ea9565b5090565b5b80821115611ec2576000816000905550600101611eaa565b5090565b6000604051905090565b600080fd5b600080fd5b60007fffffffff0000000000000000000000000000000000000000000000000000000082169050919050565b611f0f81611eda565b8114611f1a57600080fd5b50565b600081359050611f2c81611f06565b92915050565b600060208284031215611f4857611f47611ed0565b5b6000611f5684828501611f1d565b91505092915050565b60008115159050919050565b611f7481611f5f565b82525050565b6000602082019050611f8f6000830184611f6b565b92915050565b600081519050919050565b600082825260208201905092915050565b60005b83811015611fcf578082015181840152602081019050611fb4565b83811115611fde576000848401525b50505050565b6000601f19601f8301169050919050565b600061200082611f95565b61200a8185611fa0565b935061201a818560208601611fb1565b61202381611fe4565b840191505092915050565b600060208201905081810360008301526120488184611ff5565b905092915050565b6000819050919050565b61206381612050565b811461206e57600080fd5b50565b6000813590506120808161205a565b92915050565b60006020828403121561209c5761209b611ed0565b5b60006120aa84828501612071565b91505092915050565b600073ffffffffffffffffffffffffffffffffffffffff82169050919050565b60006120de826120b3565b9050919050565b6120ee816120d3565b82525050565b600060208201905061210960008301846120e5565b92915050565b612118816120d3565b811461212357600080fd5b50565b6000813590506121358161210f565b92915050565b6000806040838503121561215257612151611ed0565b5b600061216085828601612126565b925050602061217185828601612071565b9150509250929050565b61218481611f5f565b811461218f57600080fd5b50565b6000813590506121a18161217b565b92915050565b6000602082840312156121bd576121bc611ed0565b5b60006121cb84828501612192565b91505092915050565b6121dd81612050565b82525050565b60006020820190506121f860008301846121d4565b92915050565b60008060006060848603121561221757612216611ed0565b5b600061222586828701612126565b935050602061223686828701612126565b925050604061224786828701612071565b9150509250925092565b60006020828403121561226757612266611ed0565b5b600061227584828501612126565b91505092915050565b600080fd5b600080fd5b7f4e487b7100000000000000000000000000000000000000000000000000000000600052604160045260246000fd5b6122c082611fe4565b810181811067ffffffffffffffff821117156122df576122de612288565b5b80604052505050565b60006122f2611ec6565b90506122fe82826122b7565b919050565b600067ffffffffffffffff82111561231e5761231d612288565b5b61232782611fe4565b9050602081019050919050565b82818337600083830152505050565b600061235661235184612303565b6122e8565b90508281526020810184848401111561237257612371612283565b5b61237d848285612334565b509392505050565b600082601f83011261239a5761239961227e565b5b81356123aa848260208601612343565b91505092915050565b6000602082840312156123c9576123c8611ed0565b5b600082013567ffffffffffffffff8111156123e7576123e6611ed5565b5b6123f384828501612385565b91505092915050565b6000806040838503121561241357612412611ed0565b5b600061242185828601612126565b925050602061243285828601612192565b9150509250929050565b600067ffffffffffffffff82111561245757612456612288565b5b61246082611fe4565b9050602081019050919050565b600061248061247b8461243c565b6122e8565b90508281526020810184848401111561249c5761249b612283565b5b6124a7848285612334565b509392505050565b600082601f8301126124c4576124c361227e565b5b81356124d484826020860161246d565b91505092915050565b600080600080608085870312156124f7576124f6611ed0565b5b600061250587828801612126565b945050602061251687828801612126565b935050604061252787828801612071565b925050606085013567ffffffffffffffff81111561254857612547611ed5565b5b612554878288016124af565b91505092959194509250565b6000806040838503121561257757612576611ed0565b5b600061258585828601612071565b925050602061259685828601612126565b9150509250929050565b600080604083850312156125b7576125b6611ed0565b5b60006125c585828601612126565b92505060206125d685828601612126565b9150509250929050565b7f4e487b7100000000000000000000000000000000000000000000000000000000600052602260045260246000fd5b6000600282049050600182168061262757607f821691505b6020821081141561263b5761263a6125e0565b5b50919050565b600081905092915050565b50565b600061265c600083612641565b91506126678261264c565b600082019050919050565b600061267d8261264f565b9150819050919050565b7f7472616e73666572206661696c65640000000000000000000000000000000000600082015250565b60006126bd600f83611fa0565b91506126c882612687565b602082019050919050565b600060208201905081810360008301526126ec816126b0565b9050919050565b7f436f6e7472616374206973207061757365640000000000000000000000000000600082015250565b6000612729601283611fa0565b9150612734826126f3565b602082019050919050565b600060208201905081810360008301526127588161271c565b9050919050565b7f4e487b7100000000000000000000000000000000000000000000000000000000600052601160045260246000fd5b600061279982612050565b91506127a483612050565b9250827fffffffffffffffffffffffffffffffffffffffffffffffffffffffffffffffff038211156127d9576127d861275f565b5b828201905092915050565b7f4e6f7420656e6f756768206d696e7473206c6566740000000000000000000000600082015250565b600061281a601583611fa0565b9150612825826127e4565b602082019050919050565b600060208201905081810360008301526128498161280d565b9050919050565b7f5175616e7469747920746f6f2068696768000000000000000000000000000000600082015250565b6000612886601183611fa0565b915061289182612850565b602082019050919050565b600060208201905081810360008301526128b581612879565b9050919050565b7f7468697320706861736520697320667265650000000000000000000000000000600082015250565b60006128f2601283611fa0565b91506128fd826128bc565b602082019050919050565b60006020820190508181036000830152612921816128e5565b9050919050565b600061293382612050565b915061293e83612050565b9250828210156129515761295061275f565b5b828203905092915050565b600061296782612050565b915061297283612050565b9250817fffffffffffffffffffffffffffffffffffffffffffffffffffffffffffffffff04831182151516156129ab576129aa61275f565b5b828202905092915050565b7f6e6f7420656e6f756768206574686572732c20302e303031204554482065616360008201527f6800000000000000000000000000000000000000000000000000000000000000602082015250565b6000612a12602183611fa0565b9150612a1d826129b6565b604082019050919050565b60006020820190508181036000830152612a4181612a05565b9050919050565b600081905092915050565b60008190508160005260206000209050919050565b60008154612a758161260f565b612a7f8186612a48565b94506001821660008114612a9a5760018114612aab57612ade565b60ff19831686528186019350612ade565b612ab485612a53565b60005b83811015612ad657815481890152600182019150602081019050612ab7565b838801955050505b50505092915050565b6000612af282611f95565b612afc8185612a48565b9350612b0c818560208601611fb1565b80840191505092915050565b7f2e6a736f6e000000000000000000000000000000000000000000000000000000600082015250565b6000612b4e600583612a48565b9150612b5982612b18565b600582019050919050565b6000612b708285612a68565b9150612b7c8284612ae7565b9150612b8782612b41565b91508190509392505050565b7f4f776e61626c653a206e6577206f776e657220697320746865207a65726f206160008201527f6464726573730000000000000000000000000000000000000000000000000000602082015250565b6000612bef602683611fa0565b9150612bfa82612b93565b604082019050919050565b60006020820190508181036000830152612c1e81612be2565b9050919050565b7f4f776e61626c653a2063616c6c6572206973206e6f7420746865206f776e6572600082015250565b6000612c5b602083611fa0565b9150612c6682612c25565b602082019050919050565b60006020820190508181036000830152612c8a81612c4e565b9050919050565b600081519050919050565b600082825260208201905092915050565b6000612cb882612c91565b612cc28185612c9c565b9350612cd2818560208601611fb1565b612cdb81611fe4565b840191505092915050565b6000608082019050612cfb60008301876120e5565b612d0860208301866120e5565b612d1560408301856121d4565b8181036060830152612d278184612cad565b905095945050505050565b600081519050612d4181611f06565b92915050565b600060208284031215612d5d57612d5c611ed0565b5b6000612d6b84828501612d32565b91505092915050565b6000612d7f82612050565b91507fffffffffffffffffffffffffffffffffffffffffffffffffffffffffffffffff821415612db257612db161275f565b5b600182019050919050565b7f4e487b7100000000000000000000000000000000000000000000000000000000600052601260045260246000fd5b6000612df782612050565b9150612e0283612050565b925082612e1257612e11612dbd565b5b828204905092915050565b6000612e2882612050565b9150612e3383612050565b925082612e4357612e42612dbd565b5b828206905092915050565b7f4e487b7100000000000000000000000000000000000000000000000000000000600052603260045260246000fdfea2646970667358221220111779a21e02ff5bd66025634d932cc59291557e8f9d93e86f381f721eb4c25b64736f6c63430008090033",
  "linkReferences": {},
  "deployedLinkReferences": {}
}