{
  "_format": "hh-sol-artifact-1",
  "contractName": "WOAWOA",
  "sourceName": "contracts/WOAWOA.sol",
  "abi": [
    {
      "inputs": [],
      "stateMutability": "nonpayable",
      "type": "constructor"
    },
    {
      "inputs": [],
      "name": "ApprovalCallerNotOwnerNorApproved",
      "type": "error"
    },
    {
      "inputs": [],
      "name": "ApprovalQueryForNonexistentToken",
      "type": "error"
    },
    {
      "inputs": [],
      "name": "ApproveToCaller",
      "type": "error"
    },
    {
      "inputs": [],
      "name": "BalanceQueryForZeroAddress",
      "type": "error"
    },
    {
      "inputs": [],
      "name": "MintERC2309QuantityExceedsLimit",
      "type": "error"
    },
    {
      "inputs": [],
      "name": "MintToZeroAddress",
      "type": "error"
    },
    {
      "inputs": [],
      "name": "MintZeroQuantity",
      "type": "error"
    },
    {
      "inputs": [],
      "name": "OwnerQueryForNonexistentToken",
      "type": "error"
    },
    {
      "inputs": [],
      "name": "OwnershipNotInitializedForExtraData",
      "type": "error"
    },
    {
      "inputs": [],
      "name": "TransferCallerNotOwnerNorApproved",
      "type": "error"
    },
    {
      "inputs": [],
      "name": "TransferFromIncorrectOwner",
      "type": "error"
    },
    {
      "inputs": [],
      "name": "TransferToNonERC721ReceiverImplementer",
      "type": "error"
    },
    {
      "inputs": [],
      "name": "TransferToZeroAddress",
      "type": "error"
    },
    {
      "inputs": [],
      "name": "URIQueryForNonexistentToken",
      "type": "error"
    },
    {
      "anonymous": false,
      "inputs": [
        {
          "indexed": true,
          "internalType": "address",
          "name": "owner",
          "type": "address"
        },
        {
          "indexed": true,
          "internalType": "address",
          "name": "approved",
          "type": "address"
        },
        {
          "indexed": true,
          "internalType": "uint256",
          "name": "tokenId",
          "type": "uint256"
        }
      ],
      "name": "Approval",
      "type": "event"
    },
    {
      "anonymous": false,
      "inputs": [
        {
          "indexed": true,
          "internalType": "address",
          "name": "owner",
          "type": "address"
        },
        {
          "indexed": true,
          "internalType": "address",
          "name": "operator",
          "type": "address"
        },
        {
          "indexed": false,
          "internalType": "bool",
          "name": "approved",
          "type": "bool"
        }
      ],
      "name": "ApprovalForAll",
      "type": "event"
    },
    {
      "anonymous": false,
      "inputs": [
        {
          "indexed": true,
          "internalType": "uint256",
          "name": "fromTokenId",
          "type": "uint256"
        },
        {
          "indexed": false,
          "internalType": "uint256",
          "name": "toTokenId",
          "type": "uint256"
        },
        {
          "indexed": true,
          "internalType": "address",
          "name": "from",
          "type": "address"
        },
        {
          "indexed": true,
          "internalType": "address",
          "name": "to",
          "type": "address"
        }
      ],
      "name": "ConsecutiveTransfer",
      "type": "event"
    },
    {
      "anonymous": false,
      "inputs": [
        {
          "indexed": true,
          "internalType": "address",
          "name": "previousOwner",
          "type": "address"
        },
        {
          "indexed": true,
          "internalType": "address",
          "name": "newOwner",
          "type": "address"
        }
      ],
      "name": "OwnershipTransferred",
      "type": "event"
    },
    {
      "anonymous": false,
      "inputs": [
        {
          "indexed": true,
          "internalType": "address",
          "name": "from",
          "type": "address"
        },
        {
          "indexed": true,
          "internalType": "address",
          "name": "to",
          "type": "address"
        },
        {
          "indexed": true,
          "internalType": "uint256",
          "name": "tokenId",
          "type": "uint256"
        }
      ],
      "name": "Transfer",
      "type": "event"
    },
    {
      "inputs": [
        {
          "internalType": "uint256",
          "name": "quantity",
          "type": "uint256"
        },
        {
          "internalType": "address",
          "name": "reciever",
          "type": "address"
        }
      ],
      "name": "AddresstoMint",
      "outputs": [],
      "stateMutability": "payable",
      "type": "function"
    },
    {
      "inputs": [],
      "name": "MAX_PER_TXN",
      "outputs": [
        {
          "internalType": "uint256",
          "name": "",
          "type": "uint256"
        }
      ],
      "stateMutability": "view",
      "type": "function"
    },
    {
      "inputs": [],
      "name": "MAX_SUPPLY",
      "outputs": [
        {
          "internalType": "uint256",
          "name": "",
          "type": "uint256"
        }
      ],
      "stateMutability": "view",
      "type": "function"
    },
    {
      "inputs": [
        {
          "internalType": "address",
          "name": "to",
          "type": "address"
        },
        {
          "internalType": "uint256",
          "name": "tokenId",
          "type": "uint256"
        }
      ],
      "name": "approve",
      "outputs": [],
      "stateMutability": "nonpayable",
      "type": "function"
    },
    {
      "inputs": [
        {
          "internalType": "address",
          "name": "owner",
          "type": "address"
        }
      ],
      "name": "balanceOf",
      "outputs": [
        {
          "internalType": "uint256",
          "name": "",
          "type": "uint256"
        }
      ],
      "stateMutability": "view",
      "type": "function"
    },
    {
      "inputs": [],
      "name": "baseURI",
      "outputs": [
        {
          "internalType": "string",
          "name": "",
          "type": "string"
        }
      ],
      "stateMutability": "view",
      "type": "function"
    },
    {
      "inputs": [
        {
          "internalType": "uint256",
          "name": "tokenId",
          "type": "uint256"
        }
      ],
      "name": "getApproved",
      "outputs": [
        {
          "internalType": "address",
          "name": "",
          "type": "address"
        }
      ],
      "stateMutability": "view",
      "type": "function"
    },
    {
      "inputs": [
        {
          "internalType": "address",
          "name": "owner",
          "type": "address"
        },
        {
          "internalType": "address",
          "name": "operator",
          "type": "address"
        }
      ],
      "name": "isApprovedForAll",
      "outputs": [
        {
          "internalType": "bool",
          "name": "",
          "type": "bool"
        }
      ],
      "stateMutability": "view",
      "type": "function"
    },
    {
      "inputs": [
        {
          "internalType": "address",
          "name": "",
          "type": "address"
        }
      ],
      "name": "mintsPerAddress",
      "outputs": [
        {
          "internalType": "uint256",
          "name": "",
          "type": "uint256"
        }
      ],
      "stateMutability": "view",
      "type": "function"
    },
    {
      "inputs": [],
      "name": "name",
      "outputs": [
        {
          "internalType": "string",
          "name": "",
          "type": "string"
        }
      ],
      "stateMutability": "view",
      "type": "function"
    },
    {
      "inputs": [],
      "name": "owner",
      "outputs": [
        {
          "internalType": "address",
          "name": "",
          "type": "address"
        }
      ],
      "stateMutability": "view",
      "type": "function"
    },
    {
      "inputs": [
        {
          "internalType": "uint256",
          "name": "tokenId",
          "type": "uint256"
        }
      ],
      "name": "ownerOf",
      "outputs": [
        {
          "internalType": "address",
          "name": "",
          "type": "address"
        }
      ],
      "stateMutability": "view",
      "type": "function"
    },
    {
      "inputs": [],
      "name": "paused",
      "outputs": [
        {
          "internalType": "bool",
          "name": "",
          "type": "bool"
        }
      ],
      "stateMutability": "view",
      "type": "function"
    },
    {
      "inputs": [],
      "name": "price",
      "outputs": [
        {
          "internalType": "uint256",
          "name": "",
          "type": "uint256"
        }
      ],
      "stateMutability": "view",
      "type": "function"
    },
    {
      "inputs": [
        {
          "internalType": "uint256",
          "name": "quantity",
          "type": "uint256"
        }
      ],
      "name": "publicMint",
      "outputs": [],
      "stateMutability": "payable",
      "type": "function"
    },
    {
      "inputs": [],
      "name": "renounceOwnership",
      "outputs": [],
      "stateMutability": "nonpayable",
      "type": "function"
    },
    {
      "inputs": [
        {
          "internalType": "address",
          "name": "from",
          "type": "address"
        },
        {
          "internalType": "address",
          "name": "to",
          "type": "address"
        },
        {
          "internalType": "uint256",
          "name": "tokenId",
          "type": "uint256"
        }
      ],
      "name": "safeTransferFrom",
      "outputs": [],
      "stateMutability": "nonpayable",
      "type": "function"
    },
    {
      "inputs": [
        {
          "internalType": "address",
          "name": "from",
          "type": "address"
        },
        {
          "internalType": "address",
          "name": "to",
          "type": "address"
        },
        {
          "internalType": "uint256",
          "name": "tokenId",
          "type": "uint256"
        },
        {
          "internalType": "bytes",
          "name": "_data",
          "type": "bytes"
        }
      ],
      "name": "safeTransferFrom",
      "outputs": [],
      "stateMutability": "nonpayable",
      "type": "function"
    },
    {
      "inputs": [
        {
          "internalType": "address",
          "name": "operator",
          "type": "address"
        },
        {
          "internalType": "bool",
          "name": "approved",
          "type": "bool"
        }
      ],
      "name": "setApprovalForAll",
      "outputs": [],
      "stateMutability": "nonpayable",
      "type": "function"
    },
    {
      "inputs": [
        {
          "internalType": "string",
          "name": "_baseUri",
          "type": "string"
        }
      ],
      "name": "setBaseURI",
      "outputs": [],
      "stateMutability": "nonpayable",
      "type": "function"
    },
    {
      "inputs": [
        {
          "internalType": "bool",
          "name": "_state",
          "type": "bool"
        }
      ],
      "name": "setPaused",
      "outputs": [],
      "stateMutability": "nonpayable",
      "type": "function"
    },
    {
      "inputs": [
        {
          "internalType": "bytes4",
          "name": "interfaceId",
          "type": "bytes4"
        }
      ],
      "name": "supportsInterface",
      "outputs": [
        {
          "internalType": "bool",
          "name": "",
          "type": "bool"
        }
      ],
      "stateMutability": "view",
      "type": "function"
    },
    {
      "inputs": [],
      "name": "symbol",
      "outputs": [
        {
          "internalType": "string",
          "name": "",
          "type": "string"
        }
      ],
      "stateMutability": "view",
      "type": "function"
    },
    {
      "inputs": [
        {
          "internalType": "uint256",
          "name": "_tokenId",
          "type": "uint256"
        }
      ],
      "name": "tokenURI",
      "outputs": [
        {
          "internalType": "string",
          "name": "",
          "type": "string"
        }
      ],
      "stateMutability": "view",
      "type": "function"
    },
    {
      "inputs": [],
      "name": "totalSupply",
      "outputs": [
        {
          "internalType": "uint256",
          "name": "",
          "type": "uint256"
        }
      ],
      "stateMutability": "view",
      "type": "function"
    },
    {
      "inputs": [
        {
          "internalType": "address",
          "name": "from",
          "type": "address"
        },
        {
          "internalType": "address",
          "name": "to",
          "type": "address"
        },
        {
          "internalType": "uint256",
          "name": "tokenId",
          "type": "uint256"
        }
      ],
      "name": "transferFrom",
      "outputs": [],
      "stateMutability": "nonpayable",
      "type": "function"
    },
    {
      "inputs": [
        {
          "internalType": "address",
          "name": "newOwner",
          "type": "address"
        }
      ],
      "name": "transferOwnership",
      "outputs": [],
      "stateMutability": "nonpayable",
      "type": "function"
    },
    {
      "inputs": [],
      "name": "withdraw",
      "outputs": [],
      "stateMutability": "payable",
      "type": "function"
    }
  ],
  "bytecode": "0x608060405266038d7ea4c680006009556001600b60006101000a81548160ff0219169083151502179055503480156200003757600080fd5b506040518060400160405280600681526020017f574f41574f4100000000000000000000000000000000000000000000000000008152506040518060400160405280600381526020017f776f610000000000000000000000000000000000000000000000000000000000815250620000c4620000b86200011460201b60201c565b6200011c60201b60201c565b8160039080519060200190620000dc929190620001e9565b508060049080519060200190620000f5929190620001e9565b5062000106620001e060201b60201c565b6001819055505050620002fe565b600033905090565b60008060009054906101000a900473ffffffffffffffffffffffffffffffffffffffff169050816000806101000a81548173ffffffffffffffffffffffffffffffffffffffff021916908373ffffffffffffffffffffffffffffffffffffffff1602179055508173ffffffffffffffffffffffffffffffffffffffff168173ffffffffffffffffffffffffffffffffffffffff167f8be0079c531659141344cd1fd0a4f28419497f9722a3daafe3b4186f6b6457e060405160405180910390a35050565b60006001905090565b828054620001f790620002c8565b90600052602060002090601f0160209004810192826200021b576000855562000267565b82601f106200023657805160ff191683800117855562000267565b8280016001018555821562000267579182015b828111156200026657825182559160200191906001019062000249565b5b5090506200027691906200027a565b5090565b5b80821115620002955760008160009055506001016200027b565b5090565b7f4e487b7100000000000000000000000000000000000000000000000000000000600052602260045260246000fd5b60006002820490506001821680620002e157607f821691505b60208210811415620002f857620002f762000299565b5b50919050565b612eb3806200030e6000396000f3fe6080604052600436106101b75760003560e01c806355f804b3116100ec57806395d89b411161008a578063b88d4fde11610064578063b88d4fde146105bf578063c87b56dd146105e8578063e985e9c514610625578063f2fde38b14610662576101b7565b806395d89b4114610540578063a035b1fe1461056b578063a22cb46514610596576101b7565b80636c0360eb116100c65780636c0360eb1461049657806370a08231146104c1578063715018a6146104fe5780638da5cb5b14610515576101b7565b806355f804b3146104055780635c975abb1461042e5780636352211e14610459576101b7565b806323b872dd1161015957806332cb6b0c1161013357806332cb6b0c1461037c5780633ccfd60b146103a757806342842e0e146103b157806351b96d92146103da576101b7565b806323b872dd146102fa5780632db11544146103235780633023eba61461033f576101b7565b8063095ea7b311610195578063095ea7b31461026157806315a80ab71461028a57806316c38b3c146102a657806318160ddd146102cf576101b7565b806301ffc9a7146101bc57806306fdde03146101f9578063081812fc14610224575b600080fd5b3480156101c857600080fd5b506101e360048036038101906101de9190611f32565b61068b565b6040516101f09190611f7a565b60405180910390f35b34801561020557600080fd5b5061020e61071d565b60405161021b919061202e565b60405180910390f35b34801561023057600080fd5b5061024b60048036038101906102469190612086565b6107af565b60405161025891906120f4565b60405180910390f35b34801561026d57600080fd5b506102886004803603810190610283919061213b565b61082e565b005b6102a4600480360381019061029f919061217b565b610972565b005b3480156102b257600080fd5b506102cd60048036038101906102c891906121e7565b610988565b005b3480156102db57600080fd5b506102e46109ad565b6040516102f19190612223565b60405180910390f35b34801561030657600080fd5b50610321600480360381019061031c919061223e565b6109c4565b005b61033d60048036038101906103389190612086565b610ce9565b005b34801561034b57600080fd5b5061036660048036038101906103619190612291565b610ee9565b6040516103739190612223565b60405180910390f35b34801561038857600080fd5b50610391610f01565b60405161039e9190612223565b60405180910390f35b6103af610f07565b005b3480156103bd57600080fd5b506103d860048036038101906103d3919061223e565b610fbe565b005b3480156103e657600080fd5b506103ef610fde565b6040516103fc9190612223565b60405180910390f35b34801561041157600080fd5b5061042c600480360381019061042791906123f3565b610fe3565b005b34801561043a57600080fd5b50610443611005565b6040516104509190611f7a565b60405180910390f35b34801561046557600080fd5b50610480600480360381019061047b9190612086565b611018565b60405161048d91906120f4565b60405180910390f35b3480156104a257600080fd5b506104ab61102a565b6040516104b8919061202e565b60405180910390f35b3480156104cd57600080fd5b506104e860048036038101906104e39190612291565b6110b8565b6040516104f59190612223565b60405180910390f35b34801561050a57600080fd5b50610513611171565b005b34801561052157600080fd5b5061052a611185565b60405161053791906120f4565b60405180910390f35b34801561054c57600080fd5b506105556111ae565b604051610562919061202e565b60405180910390f35b34801561057757600080fd5b50610580611240565b60405161058d9190612223565b60405180910390f35b3480156105a257600080fd5b506105bd60048036038101906105b8919061243c565b611246565b005b3480156105cb57600080fd5b506105e660048036038101906105e1919061251d565b6113be565b005b3480156105f457600080fd5b5061060f600480360381019061060a9190612086565b611431565b60405161061c919061202e565b60405180910390f35b34801561063157600080fd5b5061064c600480360381019061064791906125a0565b611465565b6040516106599190611f7a565b60405180910390f35b34801561066e57600080fd5b5061068960048036038101906106849190612291565b6114f9565b005b60006301ffc9a760e01b827bffffffffffffffffffffffffffffffffffffffffffffffffffffffff191614806106e657506380ac58cd60e01b827bffffffffffffffffffffffffffffffffffffffffffffffffffffffff1916145b806107165750635b5e139f60e01b827bffffffffffffffffffffffffffffffffffffffffffffffffffffffff1916145b9050919050565b60606003805461072c9061260f565b80601f01602080910402602001604051908101604052809291908181526020018280546107589061260f565b80156107a55780601f1061077a576101008083540402835291602001916107a5565b820191906000526020600020905b81548152906001019060200180831161078857829003601f168201915b5050505050905090565b60006107ba8261157d565b6107f0576040517fcf4700e400000000000000000000000000000000000000000000000000000000815260040160405180910390fd5b6007600083815260200190815260200160002060000160009054906101000a900473ffffffffffffffffffffffffffffffffffffffff169050919050565b600061083982611018565b90508073ffffffffffffffffffffffffffffffffffffffff1661085a6115dc565b73ffffffffffffffffffffffffffffffffffffffff16146108bd57610886816108816115dc565b611465565b6108bc576040517fcfb3b94200000000000000000000000000000000000000000000000000000000815260040160405180910390fd5b5b826007600084815260200190815260200160002060000160006101000a81548173ffffffffffffffffffffffffffffffffffffffff021916908373ffffffffffffffffffffffffffffffffffffffff160217905550818373ffffffffffffffffffffffffffffffffffffffff168273ffffffffffffffffffffffffffffffffffffffff167f8c5be1e5ebec7d5bd14f71427d1e84f3dd0314c0f7b2291e5b200ac8c7c3b92560405160405180910390a4505050565b61097a6115e4565b6109848183611662565b5050565b6109906115e4565b80600b60006101000a81548160ff02191690831515021790555050565b60006109b7611680565b6002546001540303905090565b60006109cf82611689565b90508373ffffffffffffffffffffffffffffffffffffffff168173ffffffffffffffffffffffffffffffffffffffff1614610a36576040517fa114810000000000000000000000000000000000000000000000000000000000815260040160405180910390fd5b600080610a4284611757565b91509150610a588187610a536115dc565b61177e565b610aa457610a6d86610a686115dc565b611465565b610aa3576040517f59c896be00000000000000000000000000000000000000000000000000000000815260040160405180910390fd5b5b600073ffffffffffffffffffffffffffffffffffffffff168573ffffffffffffffffffffffffffffffffffffffff161415610b0b576040517fea553b3400000000000000000000000000000000000000000000000000000000815260040160405180910390fd5b610b1886868660016117c2565b8015610b2357600082555b600660008773ffffffffffffffffffffffffffffffffffffffff1673ffffffffffffffffffffffffffffffffffffffff168152602001908152602001600020600081546001900391905081905550600660008673ffffffffffffffffffffffffffffffffffffffff1673ffffffffffffffffffffffffffffffffffffffff1681526020019081526020016000206000815460010191905081905550610bf185610bcd8888876117c8565b7c0200000000000000000000000000000000000000000000000000000000176117f0565b600560008681526020019081526020016000208190555060007c020000000000000000000000000000000000000000000000000000000084161415610c79576000600185019050600060056000838152602001908152602001600020541415610c77576001548114610c76578360056000838152602001908152602001600020819055505b5b505b838573ffffffffffffffffffffffffffffffffffffffff168773ffffffffffffffffffffffffffffffffffffffff167fddf252ad1be2c89b69c2b068fc378daa952ba7f163c4a11628f55a4df523b3ef60405160405180910390a4610ce1868686600161181b565b505050505050565b600b60009054906101000a900460ff1615610d39576040517f08c379a0000000000000000000000000000000000000000000000000000000008152600401610d309061268d565b60405180910390fd5b610d0581610d456109ad565b610d4f91906126dc565b1115610d90576040517f08c379a0000000000000000000000000000000000000000000000000000000008152600401610d879061277e565b60405180910390fd5b6014811115610dd4576040517f08c379a0000000000000000000000000000000000000000000000000000000008152600401610dcb906127ea565b60405180910390fd5b60018111610e205760003414610e1f576040517f08c379a0000000000000000000000000000000000000000000000000000000008152600401610e1690612856565b60405180910390fd5b5b6001811115610e8657600954600182610e399190612876565b610e4391906128aa565b341015610e85576040517f08c379a0000000000000000000000000000000000000000000000000000000008152600401610e7c90612976565b60405180910390fd5b5b80600c60003373ffffffffffffffffffffffffffffffffffffffff1673ffffffffffffffffffffffffffffffffffffffff1681526020019081526020016000206000828254610ed591906126dc565b92505081905550610ee63382611662565b50565b600c6020528060005260406000206000915090505481565b610d0581565b610f0f6115e4565b60003373ffffffffffffffffffffffffffffffffffffffff1647604051610f35906129c7565b60006040518083038185875af1925050503d8060008114610f72576040519150601f19603f3d011682016040523d82523d6000602084013e610f77565b606091505b5050905080610fbb576040517f08c379a0000000000000000000000000000000000000000000000000000000008152600401610fb290612a28565b60405180910390fd5b50565b610fd9838383604051806020016040528060008152506113be565b505050565b601481565b610feb6115e4565b80600a9080519060200190611001929190611e23565b5050565b600b60009054906101000a900460ff1681565b600061102382611689565b9050919050565b600a80546110379061260f565b80601f01602080910402602001604051908101604052809291908181526020018280546110639061260f565b80156110b05780601f10611085576101008083540402835291602001916110b0565b820191906000526020600020905b81548152906001019060200180831161109357829003601f168201915b505050505081565b60008073ffffffffffffffffffffffffffffffffffffffff168273ffffffffffffffffffffffffffffffffffffffff161415611120576040517f8f4eb60400000000000000000000000000000000000000000000000000000000815260040160405180910390fd5b67ffffffffffffffff600660008473ffffffffffffffffffffffffffffffffffffffff1673ffffffffffffffffffffffffffffffffffffffff16815260200190815260200160002054169050919050565b6111796115e4565b6111836000611821565b565b60008060009054906101000a900473ffffffffffffffffffffffffffffffffffffffff16905090565b6060600480546111bd9061260f565b80601f01602080910402602001604051908101604052809291908181526020018280546111e99061260f565b80156112365780601f1061120b57610100808354040283529160200191611236565b820191906000526020600020905b81548152906001019060200180831161121957829003601f168201915b5050505050905090565b60095481565b61124e6115dc565b73ffffffffffffffffffffffffffffffffffffffff168273ffffffffffffffffffffffffffffffffffffffff1614156112b3576040517fb06307db00000000000000000000000000000000000000000000000000000000815260040160405180910390fd5b80600860006112c06115dc565b73ffffffffffffffffffffffffffffffffffffffff1673ffffffffffffffffffffffffffffffffffffffff16815260200190815260200160002060008473ffffffffffffffffffffffffffffffffffffffff1673ffffffffffffffffffffffffffffffffffffffff16815260200190815260200160002060006101000a81548160ff0219169083151502179055508173ffffffffffffffffffffffffffffffffffffffff1661136d6115dc565b73ffffffffffffffffffffffffffffffffffffffff167f17307eab39ab6107e8899845ad3d59bd9653f200f220920489ca2b5937696c31836040516113b29190611f7a565b60405180910390a35050565b6113c98484846109c4565b60008373ffffffffffffffffffffffffffffffffffffffff163b1461142b576113f4848484846118e5565b61142a576040517fd1a57ed600000000000000000000000000000000000000000000000000000000815260040160405180910390fd5b5b50505050565b6060600a61143e83611a45565b60405160200161144f929190612b64565b6040516020818303038152906040529050919050565b6000600860008473ffffffffffffffffffffffffffffffffffffffff1673ffffffffffffffffffffffffffffffffffffffff16815260200190815260200160002060008373ffffffffffffffffffffffffffffffffffffffff1673ffffffffffffffffffffffffffffffffffffffff16815260200190815260200160002060009054906101000a900460ff16905092915050565b6115016115e4565b600073ffffffffffffffffffffffffffffffffffffffff168173ffffffffffffffffffffffffffffffffffffffff161415611571576040517f08c379a000000000000000000000000000000000000000000000000000000000815260040161156890612c05565b60405180910390fd5b61157a81611821565b50565b600081611588611680565b11158015611597575060015482105b80156115d5575060007c0100000000000000000000000000000000000000000000000000000000600560008581526020019081526020016000205416145b9050919050565b600033905090565b6115ec611ba6565b73ffffffffffffffffffffffffffffffffffffffff1661160a611185565b73ffffffffffffffffffffffffffffffffffffffff1614611660576040517f08c379a000000000000000000000000000000000000000000000000000000000815260040161165790612c71565b60405180910390fd5b565b61167c828260405180602001604052806000815250611bae565b5050565b60006001905090565b60008082905080611698611680565b116117205760015481101561171f5760006005600083815260200190815260200160002054905060007c01000000000000000000000000000000000000000000000000000000008216141561171d575b60008114156117135760056000836001900393508381526020019081526020016000205490506116e8565b8092505050611752565b505b5b6040517fdf2d9b4200000000000000000000000000000000000000000000000000000000815260040160405180910390fd5b919050565b60008060006007600085815260200190815260200160002090508092508254915050915091565b600073ffffffffffffffffffffffffffffffffffffffff8316925073ffffffffffffffffffffffffffffffffffffffff821691508382148383141790509392505050565b50505050565b60008060e883901c905060e86117df868684611c4c565b62ffffff16901b9150509392505050565b600073ffffffffffffffffffffffffffffffffffffffff83169250814260a01b178317905092915050565b50505050565b60008060009054906101000a900473ffffffffffffffffffffffffffffffffffffffff169050816000806101000a81548173ffffffffffffffffffffffffffffffffffffffff021916908373ffffffffffffffffffffffffffffffffffffffff1602179055508173ffffffffffffffffffffffffffffffffffffffff168173ffffffffffffffffffffffffffffffffffffffff167f8be0079c531659141344cd1fd0a4f28419497f9722a3daafe3b4186f6b6457e060405160405180910390a35050565b60008373ffffffffffffffffffffffffffffffffffffffff1663150b7a0261190b6115dc565b8786866040518563ffffffff1660e01b815260040161192d9493929190612ce6565b602060405180830381600087803b15801561194757600080fd5b505af192505050801561197857506040513d601f19601f820116820180604052508101906119759190612d47565b60015b6119f2573d80600081146119a8576040519150601f19603f3d011682016040523d82523d6000602084013e6119ad565b606091505b506000815114156119ea576040517fd1a57ed600000000000000000000000000000000000000000000000000000000815260040160405180910390fd5b805181602001fd5b63150b7a0260e01b7bffffffffffffffffffffffffffffffffffffffffffffffffffffffff1916817bffffffffffffffffffffffffffffffffffffffffffffffffffffffff191614915050949350505050565b60606000821415611a8d576040518060400160405280600181526020017f30000000000000000000000000000000000000000000000000000000000000008152509050611ba1565b600082905060005b60008214611abf578080611aa890612d74565b915050600a82611ab89190612dec565b9150611a95565b60008167ffffffffffffffff811115611adb57611ada6122c8565b5b6040519080825280601f01601f191660200182016040528015611b0d5781602001600182028036833780820191505090505b5090505b60008514611b9a57600182611b269190612876565b9150600a85611b359190612e1d565b6030611b4191906126dc565b60f81b818381518110611b5757611b56612e4e565b5b60200101907effffffffffffffffffffffffffffffffffffffffffffffffffffffffffffff1916908160001a905350600a85611b939190612dec565b9450611b11565b8093505050505b919050565b600033905090565b611bb88383611c55565b60008373ffffffffffffffffffffffffffffffffffffffff163b14611c475760006001549050600083820390505b611bf960008683806001019450866118e5565b611c2f576040517fd1a57ed600000000000000000000000000000000000000000000000000000000815260040160405180910390fd5b818110611be6578160015414611c4457600080fd5b50505b505050565b60009392505050565b600060015490506000821415611c97576040517fb562e8dd00000000000000000000000000000000000000000000000000000000815260040160405180910390fd5b611ca460008483856117c2565b600160406001901b178202600660008573ffffffffffffffffffffffffffffffffffffffff1673ffffffffffffffffffffffffffffffffffffffff16815260200190815260200160002060008282540192505081905550611d1b83611d0c60008660006117c8565b611d1585611e13565b176117f0565b6005600083815260200190815260200160002081905550600080838301905073ffffffffffffffffffffffffffffffffffffffff85169150828260007fddf252ad1be2c89b69c2b068fc378daa952ba7f163c4a11628f55a4df523b3ef600080a4600183015b818114611dbc57808360007fddf252ad1be2c89b69c2b068fc378daa952ba7f163c4a11628f55a4df523b3ef600080a4600181019050611d81565b506000821415611df8576040517f2e07630000000000000000000000000000000000000000000000000000000000815260040160405180910390fd5b806001819055505050611e0e600084838561181b565b505050565b60006001821460e11b9050919050565b828054611e2f9061260f565b90600052602060002090601f016020900481019282611e515760008555611e98565b82601f10611e6a57805160ff1916838001178555611e98565b82800160010185558215611e98579182015b82811115611e97578251825591602001919060010190611e7c565b5b509050611ea59190611ea9565b5090565b5b80821115611ec2576000816000905550600101611eaa565b5090565b6000604051905090565b600080fd5b600080fd5b60007fffffffff0000000000000000000000000000000000000000000000000000000082169050919050565b611f0f81611eda565b8114611f1a57600080fd5b50565b600081359050611f2c81611f06565b92915050565b600060208284031215611f4857611f47611ed0565b5b6000611f5684828501611f1d565b91505092915050565b60008115159050919050565b611f7481611f5f565b82525050565b6000602082019050611f8f6000830184611f6b565b92915050565b600081519050919050565b600082825260208201905092915050565b60005b83811015611fcf578082015181840152602081019050611fb4565b83811115611fde576000848401525b50505050565b6000601f19601f8301169050919050565b600061200082611f95565b61200a8185611fa0565b935061201a818560208601611fb1565b61202381611fe4565b840191505092915050565b600060208201905081810360008301526120488184611ff5565b905092915050565b6000819050919050565b61206381612050565b811461206e57600080fd5b50565b6000813590506120808161205a565b92915050565b60006020828403121561209c5761209b611ed0565b5b60006120aa84828501612071565b91505092915050565b600073ffffffffffffffffffffffffffffffffffffffff82169050919050565b60006120de826120b3565b9050919050565b6120ee816120d3565b82525050565b600060208201905061210960008301846120e5565b92915050565b612118816120d3565b811461212357600080fd5b50565b6000813590506121358161210f565b92915050565b6000806040838503121561215257612151611ed0565b5b600061216085828601612126565b925050602061217185828601612071565b9150509250929050565b6000806040838503121561219257612191611ed0565b5b60006121a085828601612071565b92505060206121b185828601612126565b9150509250929050565b6121c481611f5f565b81146121cf57600080fd5b50565b6000813590506121e1816121bb565b92915050565b6000602082840312156121fd576121fc611ed0565b5b600061220b848285016121d2565b91505092915050565b61221d81612050565b82525050565b60006020820190506122386000830184612214565b92915050565b60008060006060848603121561225757612256611ed0565b5b600061226586828701612126565b935050602061227686828701612126565b925050604061228786828701612071565b9150509250925092565b6000602082840312156122a7576122a6611ed0565b5b60006122b584828501612126565b91505092915050565b600080fd5b600080fd5b7f4e487b7100000000000000000000000000000000000000000000000000000000600052604160045260246000fd5b61230082611fe4565b810181811067ffffffffffffffff8211171561231f5761231e6122c8565b5b80604052505050565b6000612332611ec6565b905061233e82826122f7565b919050565b600067ffffffffffffffff82111561235e5761235d6122c8565b5b61236782611fe4565b9050602081019050919050565b82818337600083830152505050565b600061239661239184612343565b612328565b9050828152602081018484840111156123b2576123b16122c3565b5b6123bd848285612374565b509392505050565b600082601f8301126123da576123d96122be565b5b81356123ea848260208601612383565b91505092915050565b60006020828403121561240957612408611ed0565b5b600082013567ffffffffffffffff81111561242757612426611ed5565b5b612433848285016123c5565b91505092915050565b6000806040838503121561245357612452611ed0565b5b600061246185828601612126565b9250506020612472858286016121d2565b9150509250929050565b600067ffffffffffffffff821115612497576124966122c8565b5b6124a082611fe4565b9050602081019050919050565b60006124c06124bb8461247c565b612328565b9050828152602081018484840111156124dc576124db6122c3565b5b6124e7848285612374565b509392505050565b600082601f830112612504576125036122be565b5b81356125148482602086016124ad565b91505092915050565b6000806000806080858703121561253757612536611ed0565b5b600061254587828801612126565b945050602061255687828801612126565b935050604061256787828801612071565b925050606085013567ffffffffffffffff81111561258857612587611ed5565b5b612594878288016124ef565b91505092959194509250565b600080604083850312156125b7576125b6611ed0565b5b60006125c585828601612126565b92505060206125d685828601612126565b9150509250929050565b7f4e487b7100000000000000000000000000000000000000000000000000000000600052602260045260246000fd5b6000600282049050600182168061262757607f821691505b6020821081141561263b5761263a6125e0565b5b50919050565b7f436f6e7472616374206973207061757365640000000000000000000000000000600082015250565b6000612677601283611fa0565b915061268282612641565b602082019050919050565b600060208201905081810360008301526126a68161266a565b9050919050565b7f4e487b7100000000000000000000000000000000000000000000000000000000600052601160045260246000fd5b60006126e782612050565b91506126f283612050565b9250827fffffffffffffffffffffffffffffffffffffffffffffffffffffffffffffffff03821115612727576127266126ad565b5b828201905092915050565b7f4e6f7420656e6f756768206d696e7473206c6566740000000000000000000000600082015250565b6000612768601583611fa0565b915061277382612732565b602082019050919050565b600060208201905081810360008301526127978161275b565b9050919050565b7f5175616e7469747920746f6f2068696768000000000000000000000000000000600082015250565b60006127d4601183611fa0565b91506127df8261279e565b602082019050919050565b60006020820190508181036000830152612803816127c7565b9050919050565b7f7468697320706861736520697320667265650000000000000000000000000000600082015250565b6000612840601283611fa0565b915061284b8261280a565b602082019050919050565b6000602082019050818103600083015261286f81612833565b9050919050565b600061288182612050565b915061288c83612050565b92508282101561289f5761289e6126ad565b5b828203905092915050565b60006128b582612050565b91506128c083612050565b9250817fffffffffffffffffffffffffffffffffffffffffffffffffffffffffffffffff04831182151516156128f9576128f86126ad565b5b828202905092915050565b7f6e6f7420656e6f756768206574686572732c20302e303031204554482065616360008201527f6800000000000000000000000000000000000000000000000000000000000000602082015250565b6000612960602183611fa0565b915061296b82612904565b604082019050919050565b6000602082019050818103600083015261298f81612953565b9050919050565b600081905092915050565b50565b60006129b1600083612996565b91506129bc826129a1565b600082019050919050565b60006129d2826129a4565b9150819050919050565b7f4f776e6572207472616e73666572206661696c65640000000000000000000000600082015250565b6000612a12601583611fa0565b9150612a1d826129dc565b602082019050919050565b60006020820190508181036000830152612a4181612a05565b9050919050565b600081905092915050565b60008190508160005260206000209050919050565b60008154612a758161260f565b612a7f8186612a48565b94506001821660008114612a9a5760018114612aab57612ade565b60ff19831686528186019350612ade565b612ab485612a53565b60005b83811015612ad657815481890152600182019150602081019050612ab7565b838801955050505b50505092915050565b6000612af282611f95565b612afc8185612a48565b9350612b0c818560208601611fb1565b80840191505092915050565b7f2e6a736f6e000000000000000000000000000000000000000000000000000000600082015250565b6000612b4e600583612a48565b9150612b5982612b18565b600582019050919050565b6000612b708285612a68565b9150612b7c8284612ae7565b9150612b8782612b41565b91508190509392505050565b7f4f776e61626c653a206e6577206f776e657220697320746865207a65726f206160008201527f6464726573730000000000000000000000000000000000000000000000000000602082015250565b6000612bef602683611fa0565b9150612bfa82612b93565b604082019050919050565b60006020820190508181036000830152612c1e81612be2565b9050919050565b7f4f776e61626c653a2063616c6c6572206973206e6f7420746865206f776e6572600082015250565b6000612c5b602083611fa0565b9150612c6682612c25565b602082019050919050565b60006020820190508181036000830152612c8a81612c4e565b9050919050565b600081519050919050565b600082825260208201905092915050565b6000612cb882612c91565b612cc28185612c9c565b9350612cd2818560208601611fb1565b612cdb81611fe4565b840191505092915050565b6000608082019050612cfb60008301876120e5565b612d0860208301866120e5565b612d156040830185612214565b8181036060830152612d278184612cad565b905095945050505050565b600081519050612d4181611f06565b92915050565b600060208284031215612d5d57612d5c611ed0565b5b6000612d6b84828501612d32565b91505092915050565b6000612d7f82612050565b91507fffffffffffffffffffffffffffffffffffffffffffffffffffffffffffffffff821415612db257612db16126ad565b5b600182019050919050565b7f4e487b7100000000000000000000000000000000000000000000000000000000600052601260045260246000fd5b6000612df782612050565b9150612e0283612050565b925082612e1257612e11612dbd565b5b828204905092915050565b6000612e2882612050565b9150612e3383612050565b925082612e4357612e42612dbd565b5b828206905092915050565b7f4e487b7100000000000000000000000000000000000000000000000000000000600052603260045260246000fdfea264697066735822122089b6ae2d9fe98b6c7645d6d05af49908990eeb1e6171990ff19c09bc26bd46e664736f6c63430008090033",
  "linkReferences": {},
  "deployedLinkReferences": {}
}