{
  "_format": "hh-sol-artifact-1",
  "contractName": "WOAWOA",
  "sourceName": "contracts/WOAWOA.sol",
  "abi": [
    {
      "inputs": [],
      "stateMutability": "nonpayable",
      "type": "constructor"
    },
    {
      "inputs": [],
      "name": "ApprovalCallerNotOwnerNorApproved",
      "type": "error"
    },
    {
      "inputs": [],
      "name": "ApprovalQueryForNonexistentToken",
      "type": "error"
    },
    {
      "inputs": [],
      "name": "ApproveToCaller",
      "type": "error"
    },
    {
      "inputs": [],
      "name": "BalanceQueryForZeroAddress",
      "type": "error"
    },
    {
      "inputs": [],
      "name": "MintERC2309QuantityExceedsLimit",
      "type": "error"
    },
    {
      "inputs": [],
      "name": "MintToZeroAddress",
      "type": "error"
    },
    {
      "inputs": [],
      "name": "MintZeroQuantity",
      "type": "error"
    },
    {
      "inputs": [],
      "name": "OwnerQueryForNonexistentToken",
      "type": "error"
    },
    {
      "inputs": [],
      "name": "OwnershipNotInitializedForExtraData",
      "type": "error"
    },
    {
      "inputs": [],
      "name": "TransferCallerNotOwnerNorApproved",
      "type": "error"
    },
    {
      "inputs": [],
      "name": "TransferFromIncorrectOwner",
      "type": "error"
    },
    {
      "inputs": [],
      "name": "TransferToNonERC721ReceiverImplementer",
      "type": "error"
    },
    {
      "inputs": [],
      "name": "TransferToZeroAddress",
      "type": "error"
    },
    {
      "inputs": [],
      "name": "URIQueryForNonexistentToken",
      "type": "error"
    },
    {
      "anonymous": false,
      "inputs": [
        {
          "indexed": true,
          "internalType": "address",
          "name": "owner",
          "type": "address"
        },
        {
          "indexed": true,
          "internalType": "address",
          "name": "approved",
          "type": "address"
        },
        {
          "indexed": true,
          "internalType": "uint256",
          "name": "tokenId",
          "type": "uint256"
        }
      ],
      "name": "Approval",
      "type": "event"
    },
    {
      "anonymous": false,
      "inputs": [
        {
          "indexed": true,
          "internalType": "address",
          "name": "owner",
          "type": "address"
        },
        {
          "indexed": true,
          "internalType": "address",
          "name": "operator",
          "type": "address"
        },
        {
          "indexed": false,
          "internalType": "bool",
          "name": "approved",
          "type": "bool"
        }
      ],
      "name": "ApprovalForAll",
      "type": "event"
    },
    {
      "anonymous": false,
      "inputs": [
        {
          "indexed": true,
          "internalType": "uint256",
          "name": "fromTokenId",
          "type": "uint256"
        },
        {
          "indexed": false,
          "internalType": "uint256",
          "name": "toTokenId",
          "type": "uint256"
        },
        {
          "indexed": true,
          "internalType": "address",
          "name": "from",
          "type": "address"
        },
        {
          "indexed": true,
          "internalType": "address",
          "name": "to",
          "type": "address"
        }
      ],
      "name": "ConsecutiveTransfer",
      "type": "event"
    },
    {
      "anonymous": false,
      "inputs": [
        {
          "indexed": true,
          "internalType": "address",
          "name": "previousOwner",
          "type": "address"
        },
        {
          "indexed": true,
          "internalType": "address",
          "name": "newOwner",
          "type": "address"
        }
      ],
      "name": "OwnershipTransferred",
      "type": "event"
    },
    {
      "anonymous": false,
      "inputs": [
        {
          "indexed": true,
          "internalType": "address",
          "name": "from",
          "type": "address"
        },
        {
          "indexed": true,
          "internalType": "address",
          "name": "to",
          "type": "address"
        },
        {
          "indexed": true,
          "internalType": "uint256",
          "name": "tokenId",
          "type": "uint256"
        }
      ],
      "name": "Transfer",
      "type": "event"
    },
    {
      "inputs": [
        {
          "internalType": "uint256",
          "name": "quantity",
          "type": "uint256"
        },
        {
          "internalType": "address",
          "name": "reciever",
          "type": "address"
        }
      ],
      "name": "AddresstoMint",
      "outputs": [],
      "stateMutability": "payable",
      "type": "function"
    },
    {
      "inputs": [],
      "name": "MAX_PER_TXN",
      "outputs": [
        {
          "internalType": "uint256",
          "name": "",
          "type": "uint256"
        }
      ],
      "stateMutability": "view",
      "type": "function"
    },
    {
      "inputs": [],
      "name": "MAX_PER_WALLET",
      "outputs": [
        {
          "internalType": "uint256",
          "name": "",
          "type": "uint256"
        }
      ],
      "stateMutability": "view",
      "type": "function"
    },
    {
      "inputs": [],
      "name": "MAX_SUPPLY",
      "outputs": [
        {
          "internalType": "uint256",
          "name": "",
          "type": "uint256"
        }
      ],
      "stateMutability": "view",
      "type": "function"
    },
    {
      "inputs": [
        {
          "internalType": "address",
          "name": "to",
          "type": "address"
        },
        {
          "internalType": "uint256",
          "name": "tokenId",
          "type": "uint256"
        }
      ],
      "name": "approve",
      "outputs": [],
      "stateMutability": "nonpayable",
      "type": "function"
    },
    {
      "inputs": [
        {
          "internalType": "address",
          "name": "owner",
          "type": "address"
        }
      ],
      "name": "balanceOf",
      "outputs": [
        {
          "internalType": "uint256",
          "name": "",
          "type": "uint256"
        }
      ],
      "stateMutability": "view",
      "type": "function"
    },
    {
      "inputs": [],
      "name": "baseURI",
      "outputs": [
        {
          "internalType": "string",
          "name": "",
          "type": "string"
        }
      ],
      "stateMutability": "view",
      "type": "function"
    },
    {
      "inputs": [
        {
          "internalType": "uint256",
          "name": "tokenId",
          "type": "uint256"
        }
      ],
      "name": "getApproved",
      "outputs": [
        {
          "internalType": "address",
          "name": "",
          "type": "address"
        }
      ],
      "stateMutability": "view",
      "type": "function"
    },
    {
      "inputs": [
        {
          "internalType": "address",
          "name": "owner",
          "type": "address"
        },
        {
          "internalType": "address",
          "name": "operator",
          "type": "address"
        }
      ],
      "name": "isApprovedForAll",
      "outputs": [
        {
          "internalType": "bool",
          "name": "",
          "type": "bool"
        }
      ],
      "stateMutability": "view",
      "type": "function"
    },
    {
      "inputs": [
        {
          "internalType": "address",
          "name": "",
          "type": "address"
        }
      ],
      "name": "mintsPerAddress",
      "outputs": [
        {
          "internalType": "uint256",
          "name": "",
          "type": "uint256"
        }
      ],
      "stateMutability": "view",
      "type": "function"
    },
    {
      "inputs": [],
      "name": "name",
      "outputs": [
        {
          "internalType": "string",
          "name": "",
          "type": "string"
        }
      ],
      "stateMutability": "view",
      "type": "function"
    },
    {
      "inputs": [],
      "name": "owner",
      "outputs": [
        {
          "internalType": "address",
          "name": "",
          "type": "address"
        }
      ],
      "stateMutability": "view",
      "type": "function"
    },
    {
      "inputs": [
        {
          "internalType": "uint256",
          "name": "tokenId",
          "type": "uint256"
        }
      ],
      "name": "ownerOf",
      "outputs": [
        {
          "internalType": "address",
          "name": "",
          "type": "address"
        }
      ],
      "stateMutability": "view",
      "type": "function"
    },
    {
      "inputs": [],
      "name": "paused",
      "outputs": [
        {
          "internalType": "bool",
          "name": "",
          "type": "bool"
        }
      ],
      "stateMutability": "view",
      "type": "function"
    },
    {
      "inputs": [],
      "name": "price",
      "outputs": [
        {
          "internalType": "uint256",
          "name": "",
          "type": "uint256"
        }
      ],
      "stateMutability": "view",
      "type": "function"
    },
    {
      "inputs": [
        {
          "internalType": "uint256",
          "name": "quantity",
          "type": "uint256"
        }
      ],
      "name": "publicMint",
      "outputs": [],
      "stateMutability": "payable",
      "type": "function"
    },
    {
      "inputs": [],
      "name": "renounceOwnership",
      "outputs": [],
      "stateMutability": "nonpayable",
      "type": "function"
    },
    {
      "inputs": [
        {
          "internalType": "address",
          "name": "from",
          "type": "address"
        },
        {
          "internalType": "address",
          "name": "to",
          "type": "address"
        },
        {
          "internalType": "uint256",
          "name": "tokenId",
          "type": "uint256"
        }
      ],
      "name": "safeTransferFrom",
      "outputs": [],
      "stateMutability": "nonpayable",
      "type": "function"
    },
    {
      "inputs": [
        {
          "internalType": "address",
          "name": "from",
          "type": "address"
        },
        {
          "internalType": "address",
          "name": "to",
          "type": "address"
        },
        {
          "internalType": "uint256",
          "name": "tokenId",
          "type": "uint256"
        },
        {
          "internalType": "bytes",
          "name": "_data",
          "type": "bytes"
        }
      ],
      "name": "safeTransferFrom",
      "outputs": [],
      "stateMutability": "nonpayable",
      "type": "function"
    },
    {
      "inputs": [
        {
          "internalType": "address",
          "name": "operator",
          "type": "address"
        },
        {
          "internalType": "bool",
          "name": "approved",
          "type": "bool"
        }
      ],
      "name": "setApprovalForAll",
      "outputs": [],
      "stateMutability": "nonpayable",
      "type": "function"
    },
    {
      "inputs": [
        {
          "internalType": "string",
          "name": "_baseUri",
          "type": "string"
        }
      ],
      "name": "setBaseURI",
      "outputs": [],
      "stateMutability": "nonpayable",
      "type": "function"
    },
    {
      "inputs": [
        {
          "internalType": "bool",
          "name": "_state",
          "type": "bool"
        }
      ],
      "name": "setPaused",
      "outputs": [],
      "stateMutability": "nonpayable",
      "type": "function"
    },
    {
      "inputs": [
        {
          "internalType": "bytes4",
          "name": "interfaceId",
          "type": "bytes4"
        }
      ],
      "name": "supportsInterface",
      "outputs": [
        {
          "internalType": "bool",
          "name": "",
          "type": "bool"
        }
      ],
      "stateMutability": "view",
      "type": "function"
    },
    {
      "inputs": [],
      "name": "symbol",
      "outputs": [
        {
          "internalType": "string",
          "name": "",
          "type": "string"
        }
      ],
      "stateMutability": "view",
      "type": "function"
    },
    {
      "inputs": [
        {
          "internalType": "uint256",
          "name": "_tokenId",
          "type": "uint256"
        }
      ],
      "name": "tokenURI",
      "outputs": [
        {
          "internalType": "string",
          "name": "",
          "type": "string"
        }
      ],
      "stateMutability": "view",
      "type": "function"
    },
    {
      "inputs": [],
      "name": "totalSupply",
      "outputs": [
        {
          "internalType": "uint256",
          "name": "",
          "type": "uint256"
        }
      ],
      "stateMutability": "view",
      "type": "function"
    },
    {
      "inputs": [
        {
          "internalType": "address",
          "name": "from",
          "type": "address"
        },
        {
          "internalType": "address",
          "name": "to",
          "type": "address"
        },
        {
          "internalType": "uint256",
          "name": "tokenId",
          "type": "uint256"
        }
      ],
      "name": "transferFrom",
      "outputs": [],
      "stateMutability": "nonpayable",
      "type": "function"
    },
    {
      "inputs": [
        {
          "internalType": "address",
          "name": "newOwner",
          "type": "address"
        }
      ],
      "name": "transferOwnership",
      "outputs": [],
      "stateMutability": "nonpayable",
      "type": "function"
    },
    {
      "inputs": [],
      "name": "withdraw",
      "outputs": [],
      "stateMutability": "payable",
      "type": "function"
    }
  ],
  "bytecode": "0x608060405266038d7ea4c680006009556001600b60006101000a81548160ff0219169083151502179055503480156200003757600080fd5b506040518060400160405280600681526020017f574f41574f4100000000000000000000000000000000000000000000000000008152506040518060400160405280600381526020017f776f610000000000000000000000000000000000000000000000000000000000815250620000c4620000b86200011460201b60201c565b6200011c60201b60201c565b8160039080519060200190620000dc929190620001e9565b508060049080519060200190620000f5929190620001e9565b5062000106620001e060201b60201c565b6001819055505050620002fe565b600033905090565b60008060009054906101000a900473ffffffffffffffffffffffffffffffffffffffff169050816000806101000a81548173ffffffffffffffffffffffffffffffffffffffff021916908373ffffffffffffffffffffffffffffffffffffffff1602179055508173ffffffffffffffffffffffffffffffffffffffff168173ffffffffffffffffffffffffffffffffffffffff167f8be0079c531659141344cd1fd0a4f28419497f9722a3daafe3b4186f6b6457e060405160405180910390a35050565b60006001905090565b828054620001f790620002c8565b90600052602060002090601f0160209004810192826200021b576000855562000267565b82601f106200023657805160ff191683800117855562000267565b8280016001018555821562000267579182015b828111156200026657825182559160200191906001019062000249565b5b5090506200027691906200027a565b5090565b5b80821115620002955760008160009055506001016200027b565b5090565b7f4e487b7100000000000000000000000000000000000000000000000000000000600052602260045260246000fd5b60006002820490506001821680620002e157607f821691505b60208210811415620002f857620002f762000299565b5b50919050565b612f96806200030e6000396000f3fe6080604052600436106101c25760003560e01c806351b96d92116100f75780638da5cb5b11610095578063b88d4fde11610064578063b88d4fde146105f5578063c87b56dd1461061e578063e985e9c51461065b578063f2fde38b14610698576101c2565b80638da5cb5b1461054b57806395d89b4114610576578063a035b1fe146105a1578063a22cb465146105cc576101c2565b80636352211e116100d15780636352211e1461048f5780636c0360eb146104cc57806370a08231146104f7578063715018a614610534576101c2565b806351b96d921461041057806355f804b31461043b5780635c975abb14610464576101c2565b806318160ddd116101645780633023eba61161013e5780633023eba61461037557806332cb6b0c146103b25780633ccfd60b146103dd57806342842e0e146103e7576101c2565b806318160ddd1461030557806323b872dd146103305780632db1154414610359576101c2565b8063095ea7b3116101a0578063095ea7b31461026c5780630f2cdd6c1461029557806315a80ab7146102c057806316c38b3c146102dc576101c2565b806301ffc9a7146101c757806306fdde0314610204578063081812fc1461022f575b600080fd5b3480156101d357600080fd5b506101ee60048036038101906101e99190611fa9565b6106c1565b6040516101fb9190611ff1565b60405180910390f35b34801561021057600080fd5b50610219610753565b60405161022691906120a5565b60405180910390f35b34801561023b57600080fd5b50610256600480360381019061025191906120fd565b6107e5565b604051610263919061216b565b60405180910390f35b34801561027857600080fd5b50610293600480360381019061028e91906121b2565b610864565b005b3480156102a157600080fd5b506102aa6109a8565b6040516102b79190612201565b60405180910390f35b6102da60048036038101906102d5919061221c565b6109ad565b005b3480156102e857600080fd5b5061030360048036038101906102fe9190612288565b6109c3565b005b34801561031157600080fd5b5061031a6109e8565b6040516103279190612201565b60405180910390f35b34801561033c57600080fd5b50610357600480360381019061035291906122b5565b6109ff565b005b610373600480360381019061036e91906120fd565b610d24565b005b34801561038157600080fd5b5061039c60048036038101906103979190612308565b610f60565b6040516103a99190612201565b60405180910390f35b3480156103be57600080fd5b506103c7610f78565b6040516103d49190612201565b60405180910390f35b6103e5610f7e565b005b3480156103f357600080fd5b5061040e600480360381019061040991906122b5565b611035565b005b34801561041c57600080fd5b50610425611055565b6040516104329190612201565b60405180910390f35b34801561044757600080fd5b50610462600480360381019061045d919061246a565b61105a565b005b34801561047057600080fd5b5061047961107c565b6040516104869190611ff1565b60405180910390f35b34801561049b57600080fd5b506104b660048036038101906104b191906120fd565b61108f565b6040516104c3919061216b565b60405180910390f35b3480156104d857600080fd5b506104e16110a1565b6040516104ee91906120a5565b60405180910390f35b34801561050357600080fd5b5061051e60048036038101906105199190612308565b61112f565b60405161052b9190612201565b60405180910390f35b34801561054057600080fd5b506105496111e8565b005b34801561055757600080fd5b506105606111fc565b60405161056d919061216b565b60405180910390f35b34801561058257600080fd5b5061058b611225565b60405161059891906120a5565b60405180910390f35b3480156105ad57600080fd5b506105b66112b7565b6040516105c39190612201565b60405180910390f35b3480156105d857600080fd5b506105f360048036038101906105ee91906124b3565b6112bd565b005b34801561060157600080fd5b5061061c60048036038101906106179190612594565b611435565b005b34801561062a57600080fd5b50610645600480360381019061064091906120fd565b6114a8565b60405161065291906120a5565b60405180910390f35b34801561066757600080fd5b50610682600480360381019061067d9190612617565b6114dc565b60405161068f9190611ff1565b60405180910390f35b3480156106a457600080fd5b506106bf60048036038101906106ba9190612308565b611570565b005b60006301ffc9a760e01b827bffffffffffffffffffffffffffffffffffffffffffffffffffffffff1916148061071c57506380ac58cd60e01b827bffffffffffffffffffffffffffffffffffffffffffffffffffffffff1916145b8061074c5750635b5e139f60e01b827bffffffffffffffffffffffffffffffffffffffffffffffffffffffff1916145b9050919050565b60606003805461076290612686565b80601f016020809104026020016040519081016040528092919081815260200182805461078e90612686565b80156107db5780601f106107b0576101008083540402835291602001916107db565b820191906000526020600020905b8154815290600101906020018083116107be57829003601f168201915b5050505050905090565b60006107f0826115f4565b610826576040517fcf4700e400000000000000000000000000000000000000000000000000000000815260040160405180910390fd5b6007600083815260200190815260200160002060000160009054906101000a900473ffffffffffffffffffffffffffffffffffffffff169050919050565b600061086f8261108f565b90508073ffffffffffffffffffffffffffffffffffffffff16610890611653565b73ffffffffffffffffffffffffffffffffffffffff16146108f3576108bc816108b7611653565b6114dc565b6108f2576040517fcfb3b94200000000000000000000000000000000000000000000000000000000815260040160405180910390fd5b5b826007600084815260200190815260200160002060000160006101000a81548173ffffffffffffffffffffffffffffffffffffffff021916908373ffffffffffffffffffffffffffffffffffffffff160217905550818373ffffffffffffffffffffffffffffffffffffffff168273ffffffffffffffffffffffffffffffffffffffff167f8c5be1e5ebec7d5bd14f71427d1e84f3dd0314c0f7b2291e5b200ac8c7c3b92560405160405180910390a4505050565b601481565b6109b561165b565b6109bf81836116d9565b5050565b6109cb61165b565b80600b60006101000a81548160ff02191690831515021790555050565b60006109f26116f7565b6002546001540303905090565b6000610a0a82611700565b90508373ffffffffffffffffffffffffffffffffffffffff168173ffffffffffffffffffffffffffffffffffffffff1614610a71576040517fa114810000000000000000000000000000000000000000000000000000000000815260040160405180910390fd5b600080610a7d846117ce565b91509150610a938187610a8e611653565b6117f5565b610adf57610aa886610aa3611653565b6114dc565b610ade576040517f59c896be00000000000000000000000000000000000000000000000000000000815260040160405180910390fd5b5b600073ffffffffffffffffffffffffffffffffffffffff168573ffffffffffffffffffffffffffffffffffffffff161415610b46576040517fea553b3400000000000000000000000000000000000000000000000000000000815260040160405180910390fd5b610b538686866001611839565b8015610b5e57600082555b600660008773ffffffffffffffffffffffffffffffffffffffff1673ffffffffffffffffffffffffffffffffffffffff168152602001908152602001600020600081546001900391905081905550600660008673ffffffffffffffffffffffffffffffffffffffff1673ffffffffffffffffffffffffffffffffffffffff1681526020019081526020016000206000815460010191905081905550610c2c85610c0888888761183f565b7c020000000000000000000000000000000000000000000000000000000017611867565b600560008681526020019081526020016000208190555060007c020000000000000000000000000000000000000000000000000000000084161415610cb4576000600185019050600060056000838152602001908152602001600020541415610cb2576001548114610cb1578360056000838152602001908152602001600020819055505b5b505b838573ffffffffffffffffffffffffffffffffffffffff168773ffffffffffffffffffffffffffffffffffffffff167fddf252ad1be2c89b69c2b068fc378daa952ba7f163c4a11628f55a4df523b3ef60405160405180910390a4610d1c8686866001611892565b505050505050565b600b60009054906101000a900460ff1615610d74576040517f08c379a0000000000000000000000000000000000000000000000000000000008152600401610d6b90612704565b60405180910390fd5b610d0581610d806109e8565b610d8a9190612753565b1115610dcb576040517f08c379a0000000000000000000000000000000000000000000000000000000008152600401610dc2906127f5565b60405180910390fd5b600a811115610e0f576040517f08c379a0000000000000000000000000000000000000000000000000000000008152600401610e0690612861565b60405180910390fd5b601481600c60003373ffffffffffffffffffffffffffffffffffffffff1673ffffffffffffffffffffffffffffffffffffffff16815260200190815260200160002054610e5c9190612753565b1115610e9d576040517f08c379a0000000000000000000000000000000000000000000000000000000008152600401610e94906128cd565b60405180910390fd5b6103e8610ea86109e8565b11610ef15760003414610ef0576040517f08c379a0000000000000000000000000000000000000000000000000000000008152600401610ee790612939565b60405180910390fd5b5b6103e8610efc6109e8565b1115610f535760095481610f109190612959565b341015610f52576040517f08c379a0000000000000000000000000000000000000000000000000000000008152600401610f4990612a25565b60405180910390fd5b5b610f5d33826116d9565b50565b600c6020528060005260406000206000915090505481565b610d0581565b610f8661165b565b60003373ffffffffffffffffffffffffffffffffffffffff1647604051610fac90612a76565b60006040518083038185875af1925050503d8060008114610fe9576040519150601f19603f3d011682016040523d82523d6000602084013e610fee565b606091505b5050905080611032576040517f08c379a000000000000000000000000000000000000000000000000000000000815260040161102990612ad7565b60405180910390fd5b50565b61105083838360405180602001604052806000815250611435565b505050565b600a81565b61106261165b565b80600a9080519060200190611078929190611e9a565b5050565b600b60009054906101000a900460ff1681565b600061109a82611700565b9050919050565b600a80546110ae90612686565b80601f01602080910402602001604051908101604052809291908181526020018280546110da90612686565b80156111275780601f106110fc57610100808354040283529160200191611127565b820191906000526020600020905b81548152906001019060200180831161110a57829003601f168201915b505050505081565b60008073ffffffffffffffffffffffffffffffffffffffff168273ffffffffffffffffffffffffffffffffffffffff161415611197576040517f8f4eb60400000000000000000000000000000000000000000000000000000000815260040160405180910390fd5b67ffffffffffffffff600660008473ffffffffffffffffffffffffffffffffffffffff1673ffffffffffffffffffffffffffffffffffffffff16815260200190815260200160002054169050919050565b6111f061165b565b6111fa6000611898565b565b60008060009054906101000a900473ffffffffffffffffffffffffffffffffffffffff16905090565b60606004805461123490612686565b80601f016020809104026020016040519081016040528092919081815260200182805461126090612686565b80156112ad5780601f10611282576101008083540402835291602001916112ad565b820191906000526020600020905b81548152906001019060200180831161129057829003601f168201915b5050505050905090565b60095481565b6112c5611653565b73ffffffffffffffffffffffffffffffffffffffff168273ffffffffffffffffffffffffffffffffffffffff16141561132a576040517fb06307db00000000000000000000000000000000000000000000000000000000815260040160405180910390fd5b8060086000611337611653565b73ffffffffffffffffffffffffffffffffffffffff1673ffffffffffffffffffffffffffffffffffffffff16815260200190815260200160002060008473ffffffffffffffffffffffffffffffffffffffff1673ffffffffffffffffffffffffffffffffffffffff16815260200190815260200160002060006101000a81548160ff0219169083151502179055508173ffffffffffffffffffffffffffffffffffffffff166113e4611653565b73ffffffffffffffffffffffffffffffffffffffff167f17307eab39ab6107e8899845ad3d59bd9653f200f220920489ca2b5937696c31836040516114299190611ff1565b60405180910390a35050565b6114408484846109ff565b60008373ffffffffffffffffffffffffffffffffffffffff163b146114a25761146b8484848461195c565b6114a1576040517fd1a57ed600000000000000000000000000000000000000000000000000000000815260040160405180910390fd5b5b50505050565b6060600a6114b583611abc565b6040516020016114c6929190612c13565b6040516020818303038152906040529050919050565b6000600860008473ffffffffffffffffffffffffffffffffffffffff1673ffffffffffffffffffffffffffffffffffffffff16815260200190815260200160002060008373ffffffffffffffffffffffffffffffffffffffff1673ffffffffffffffffffffffffffffffffffffffff16815260200190815260200160002060009054906101000a900460ff16905092915050565b61157861165b565b600073ffffffffffffffffffffffffffffffffffffffff168173ffffffffffffffffffffffffffffffffffffffff1614156115e8576040517f08c379a00000000000000000000000000000000000000000000000000000000081526004016115df90612cb4565b60405180910390fd5b6115f181611898565b50565b6000816115ff6116f7565b1115801561160e575060015482105b801561164c575060007c0100000000000000000000000000000000000000000000000000000000600560008581526020019081526020016000205416145b9050919050565b600033905090565b611663611c1d565b73ffffffffffffffffffffffffffffffffffffffff166116816111fc565b73ffffffffffffffffffffffffffffffffffffffff16146116d7576040517f08c379a00000000000000000000000000000000000000000000000000000000081526004016116ce90612d20565b60405180910390fd5b565b6116f3828260405180602001604052806000815250611c25565b5050565b60006001905090565b6000808290508061170f6116f7565b11611797576001548110156117965760006005600083815260200190815260200160002054905060007c010000000000000000000000000000000000000000000000000000000082161415611794575b600081141561178a57600560008360019003935083815260200190815260200160002054905061175f565b80925050506117c9565b505b5b6040517fdf2d9b4200000000000000000000000000000000000000000000000000000000815260040160405180910390fd5b919050565b60008060006007600085815260200190815260200160002090508092508254915050915091565b600073ffffffffffffffffffffffffffffffffffffffff8316925073ffffffffffffffffffffffffffffffffffffffff821691508382148383141790509392505050565b50505050565b60008060e883901c905060e8611856868684611cc3565b62ffffff16901b9150509392505050565b600073ffffffffffffffffffffffffffffffffffffffff83169250814260a01b178317905092915050565b50505050565b60008060009054906101000a900473ffffffffffffffffffffffffffffffffffffffff169050816000806101000a81548173ffffffffffffffffffffffffffffffffffffffff021916908373ffffffffffffffffffffffffffffffffffffffff1602179055508173ffffffffffffffffffffffffffffffffffffffff168173ffffffffffffffffffffffffffffffffffffffff167f8be0079c531659141344cd1fd0a4f28419497f9722a3daafe3b4186f6b6457e060405160405180910390a35050565b60008373ffffffffffffffffffffffffffffffffffffffff1663150b7a02611982611653565b8786866040518563ffffffff1660e01b81526004016119a49493929190612d95565b602060405180830381600087803b1580156119be57600080fd5b505af19250505080156119ef57506040513d601f19601f820116820180604052508101906119ec9190612df6565b60015b611a69573d8060008114611a1f576040519150601f19603f3d011682016040523d82523d6000602084013e611a24565b606091505b50600081511415611a61576040517fd1a57ed600000000000000000000000000000000000000000000000000000000815260040160405180910390fd5b805181602001fd5b63150b7a0260e01b7bffffffffffffffffffffffffffffffffffffffffffffffffffffffff1916817bffffffffffffffffffffffffffffffffffffffffffffffffffffffff191614915050949350505050565b60606000821415611b04576040518060400160405280600181526020017f30000000000000000000000000000000000000000000000000000000000000008152509050611c18565b600082905060005b60008214611b36578080611b1f90612e23565b915050600a82611b2f9190612e9b565b9150611b0c565b60008167ffffffffffffffff811115611b5257611b5161233f565b5b6040519080825280601f01601f191660200182016040528015611b845781602001600182028036833780820191505090505b5090505b60008514611c1157600182611b9d9190612ecc565b9150600a85611bac9190612f00565b6030611bb89190612753565b60f81b818381518110611bce57611bcd612f31565b5b60200101907effffffffffffffffffffffffffffffffffffffffffffffffffffffffffffff1916908160001a905350600a85611c0a9190612e9b565b9450611b88565b8093505050505b919050565b600033905090565b611c2f8383611ccc565b60008373ffffffffffffffffffffffffffffffffffffffff163b14611cbe5760006001549050600083820390505b611c70600086838060010194508661195c565b611ca6576040517fd1a57ed600000000000000000000000000000000000000000000000000000000815260040160405180910390fd5b818110611c5d578160015414611cbb57600080fd5b50505b505050565b60009392505050565b600060015490506000821415611d0e576040517fb562e8dd00000000000000000000000000000000000000000000000000000000815260040160405180910390fd5b611d1b6000848385611839565b600160406001901b178202600660008573ffffffffffffffffffffffffffffffffffffffff1673ffffffffffffffffffffffffffffffffffffffff16815260200190815260200160002060008282540192505081905550611d9283611d83600086600061183f565b611d8c85611e8a565b17611867565b6005600083815260200190815260200160002081905550600080838301905073ffffffffffffffffffffffffffffffffffffffff85169150828260007fddf252ad1be2c89b69c2b068fc378daa952ba7f163c4a11628f55a4df523b3ef600080a4600183015b818114611e3357808360007fddf252ad1be2c89b69c2b068fc378daa952ba7f163c4a11628f55a4df523b3ef600080a4600181019050611df8565b506000821415611e6f576040517f2e07630000000000000000000000000000000000000000000000000000000000815260040160405180910390fd5b806001819055505050611e856000848385611892565b505050565b60006001821460e11b9050919050565b828054611ea690612686565b90600052602060002090601f016020900481019282611ec85760008555611f0f565b82601f10611ee157805160ff1916838001178555611f0f565b82800160010185558215611f0f579182015b82811115611f0e578251825591602001919060010190611ef3565b5b509050611f1c9190611f20565b5090565b5b80821115611f39576000816000905550600101611f21565b5090565b6000604051905090565b600080fd5b600080fd5b60007fffffffff0000000000000000000000000000000000000000000000000000000082169050919050565b611f8681611f51565b8114611f9157600080fd5b50565b600081359050611fa381611f7d565b92915050565b600060208284031215611fbf57611fbe611f47565b5b6000611fcd84828501611f94565b91505092915050565b60008115159050919050565b611feb81611fd6565b82525050565b60006020820190506120066000830184611fe2565b92915050565b600081519050919050565b600082825260208201905092915050565b60005b8381101561204657808201518184015260208101905061202b565b83811115612055576000848401525b50505050565b6000601f19601f8301169050919050565b60006120778261200c565b6120818185612017565b9350612091818560208601612028565b61209a8161205b565b840191505092915050565b600060208201905081810360008301526120bf818461206c565b905092915050565b6000819050919050565b6120da816120c7565b81146120e557600080fd5b50565b6000813590506120f7816120d1565b92915050565b60006020828403121561211357612112611f47565b5b6000612121848285016120e8565b91505092915050565b600073ffffffffffffffffffffffffffffffffffffffff82169050919050565b60006121558261212a565b9050919050565b6121658161214a565b82525050565b6000602082019050612180600083018461215c565b92915050565b61218f8161214a565b811461219a57600080fd5b50565b6000813590506121ac81612186565b92915050565b600080604083850312156121c9576121c8611f47565b5b60006121d78582860161219d565b92505060206121e8858286016120e8565b9150509250929050565b6121fb816120c7565b82525050565b600060208201905061221660008301846121f2565b92915050565b6000806040838503121561223357612232611f47565b5b6000612241858286016120e8565b92505060206122528582860161219d565b9150509250929050565b61226581611fd6565b811461227057600080fd5b50565b6000813590506122828161225c565b92915050565b60006020828403121561229e5761229d611f47565b5b60006122ac84828501612273565b91505092915050565b6000806000606084860312156122ce576122cd611f47565b5b60006122dc8682870161219d565b93505060206122ed8682870161219d565b92505060406122fe868287016120e8565b9150509250925092565b60006020828403121561231e5761231d611f47565b5b600061232c8482850161219d565b91505092915050565b600080fd5b600080fd5b7f4e487b7100000000000000000000000000000000000000000000000000000000600052604160045260246000fd5b6123778261205b565b810181811067ffffffffffffffff821117156123965761239561233f565b5b80604052505050565b60006123a9611f3d565b90506123b5828261236e565b919050565b600067ffffffffffffffff8211156123d5576123d461233f565b5b6123de8261205b565b9050602081019050919050565b82818337600083830152505050565b600061240d612408846123ba565b61239f565b9050828152602081018484840111156124295761242861233a565b5b6124348482856123eb565b509392505050565b600082601f83011261245157612450612335565b5b81356124618482602086016123fa565b91505092915050565b6000602082840312156124805761247f611f47565b5b600082013567ffffffffffffffff81111561249e5761249d611f4c565b5b6124aa8482850161243c565b91505092915050565b600080604083850312156124ca576124c9611f47565b5b60006124d88582860161219d565b92505060206124e985828601612273565b9150509250929050565b600067ffffffffffffffff82111561250e5761250d61233f565b5b6125178261205b565b9050602081019050919050565b6000612537612532846124f3565b61239f565b9050828152602081018484840111156125535761255261233a565b5b61255e8482856123eb565b509392505050565b600082601f83011261257b5761257a612335565b5b813561258b848260208601612524565b91505092915050565b600080600080608085870312156125ae576125ad611f47565b5b60006125bc8782880161219d565b94505060206125cd8782880161219d565b93505060406125de878288016120e8565b925050606085013567ffffffffffffffff8111156125ff576125fe611f4c565b5b61260b87828801612566565b91505092959194509250565b6000806040838503121561262e5761262d611f47565b5b600061263c8582860161219d565b925050602061264d8582860161219d565b9150509250929050565b7f4e487b7100000000000000000000000000000000000000000000000000000000600052602260045260246000fd5b6000600282049050600182168061269e57607f821691505b602082108114156126b2576126b1612657565b5b50919050565b7f436f6e7472616374206973207061757365640000000000000000000000000000600082015250565b60006126ee601283612017565b91506126f9826126b8565b602082019050919050565b6000602082019050818103600083015261271d816126e1565b9050919050565b7f4e487b7100000000000000000000000000000000000000000000000000000000600052601160045260246000fd5b600061275e826120c7565b9150612769836120c7565b9250827fffffffffffffffffffffffffffffffffffffffffffffffffffffffffffffffff0382111561279e5761279d612724565b5b828201905092915050565b7f4e6f7420656e6f756768206d696e7473206c6566740000000000000000000000600082015250565b60006127df601583612017565b91506127ea826127a9565b602082019050919050565b6000602082019050818103600083015261280e816127d2565b9050919050565b7f5175616e7469747920746f6f2068696768000000000000000000000000000000600082015250565b600061284b601183612017565b915061285682612815565b602082019050919050565b6000602082019050818103600083015261287a8161283e565b9050919050565b7f55736572206d61782077616c6c6574206c696d69742072656163686564000000600082015250565b60006128b7601d83612017565b91506128c282612881565b602082019050919050565b600060208201905081810360008301526128e6816128aa565b9050919050565b7f7468697320706861736520697320667265650000000000000000000000000000600082015250565b6000612923601283612017565b915061292e826128ed565b602082019050919050565b6000602082019050818103600083015261295281612916565b9050919050565b6000612964826120c7565b915061296f836120c7565b9250817fffffffffffffffffffffffffffffffffffffffffffffffffffffffffffffffff04831182151516156129a8576129a7612724565b5b828202905092915050565b7f6e6f7420656e6f756768206574686572732c20302e303031204554482065616360008201527f6800000000000000000000000000000000000000000000000000000000000000602082015250565b6000612a0f602183612017565b9150612a1a826129b3565b604082019050919050565b60006020820190508181036000830152612a3e81612a02565b9050919050565b600081905092915050565b50565b6000612a60600083612a45565b9150612a6b82612a50565b600082019050919050565b6000612a8182612a53565b9150819050919050565b7f4f776e6572207472616e73666572206661696c65640000000000000000000000600082015250565b6000612ac1601583612017565b9150612acc82612a8b565b602082019050919050565b60006020820190508181036000830152612af081612ab4565b9050919050565b600081905092915050565b60008190508160005260206000209050919050565b60008154612b2481612686565b612b2e8186612af7565b94506001821660008114612b495760018114612b5a57612b8d565b60ff19831686528186019350612b8d565b612b6385612b02565b60005b83811015612b8557815481890152600182019150602081019050612b66565b838801955050505b50505092915050565b6000612ba18261200c565b612bab8185612af7565b9350612bbb818560208601612028565b80840191505092915050565b7f2e6a736f6e000000000000000000000000000000000000000000000000000000600082015250565b6000612bfd600583612af7565b9150612c0882612bc7565b600582019050919050565b6000612c1f8285612b17565b9150612c2b8284612b96565b9150612c3682612bf0565b91508190509392505050565b7f4f776e61626c653a206e6577206f776e657220697320746865207a65726f206160008201527f6464726573730000000000000000000000000000000000000000000000000000602082015250565b6000612c9e602683612017565b9150612ca982612c42565b604082019050919050565b60006020820190508181036000830152612ccd81612c91565b9050919050565b7f4f776e61626c653a2063616c6c6572206973206e6f7420746865206f776e6572600082015250565b6000612d0a602083612017565b9150612d1582612cd4565b602082019050919050565b60006020820190508181036000830152612d3981612cfd565b9050919050565b600081519050919050565b600082825260208201905092915050565b6000612d6782612d40565b612d718185612d4b565b9350612d81818560208601612028565b612d8a8161205b565b840191505092915050565b6000608082019050612daa600083018761215c565b612db7602083018661215c565b612dc460408301856121f2565b8181036060830152612dd68184612d5c565b905095945050505050565b600081519050612df081611f7d565b92915050565b600060208284031215612e0c57612e0b611f47565b5b6000612e1a84828501612de1565b91505092915050565b6000612e2e826120c7565b91507fffffffffffffffffffffffffffffffffffffffffffffffffffffffffffffffff821415612e6157612e60612724565b5b600182019050919050565b7f4e487b7100000000000000000000000000000000000000000000000000000000600052601260045260246000fd5b6000612ea6826120c7565b9150612eb1836120c7565b925082612ec157612ec0612e6c565b5b828204905092915050565b6000612ed7826120c7565b9150612ee2836120c7565b925082821015612ef557612ef4612724565b5b828203905092915050565b6000612f0b826120c7565b9150612f16836120c7565b925082612f2657612f25612e6c565b5b828206905092915050565b7f4e487b7100000000000000000000000000000000000000000000000000000000600052603260045260246000fdfea26469706673582212205bd126b15e3c012c626b8265df20f1191c75f01584992051980756a70cd3585d64736f6c63430008090033",
  "linkReferences": {},
  "deployedLinkReferences": {}
}